{
  "contractName": "WeatherOracle",
  "abi": [
    {
      "constant": true,
      "inputs": [],
      "name": "owner",
      "outputs": [
        {
          "name": "",
          "type": "address"
        }
      ],
      "payable": false,
      "stateMutability": "view",
      "type": "function"
    },
    {
      "constant": false,
      "inputs": [
        {
          "name": "newOwner",
          "type": "address"
        }
      ],
      "name": "transferOwnership",
      "outputs": [],
      "payable": false,
      "stateMutability": "nonpayable",
      "type": "function"
    },
    {
      "anonymous": false,
      "inputs": [
        {
          "indexed": true,
          "name": "previousOwner",
          "type": "address"
        },
        {
          "indexed": true,
          "name": "newOwner",
          "type": "address"
        }
      ],
      "name": "OwnershipTransferred",
      "type": "event"
    },
    {
      "constant": true,
      "inputs": [
        {
          "name": "_betId",
          "type": "bytes32"
        }
      ],
      "name": "cityBetExists",
      "outputs": [
        {
          "name": "",
          "type": "bool"
        }
      ],
      "payable": false,
      "stateMutability": "view",
      "type": "function"
    },
    {
      "constant": false,
      "inputs": [
        {
          "name": "_cityId",
          "type": "string"
        },
        {
          "name": "_cityName",
          "type": "string"
        },
        {
          "name": "_weather_date",
          "type": "uint256"
        }
      ],
      "name": "addCityBet",
      "outputs": [
        {
          "name": "",
          "type": "bytes32"
        }
      ],
      "payable": false,
      "stateMutability": "nonpayable",
      "type": "function"
    },
    {
      "constant": false,
      "inputs": [
        {
          "name": "_betId",
          "type": "bytes32"
        },
        {
          "name": "_outcome",
          "type": "uint8"
        },
        {
          "name": "_winning_degree",
          "type": "int8"
        }
      ],
      "name": "declareOutcome",
      "outputs": [],
      "payable": false,
      "stateMutability": "nonpayable",
      "type": "function"
    },
    {
      "constant": true,
      "inputs": [],
      "name": "getPendingCityBets",
      "outputs": [
        {
          "name": "",
          "type": "bytes32[]"
        }
      ],
      "payable": false,
      "stateMutability": "view",
      "type": "function"
    },
    {
      "constant": true,
      "inputs": [],
      "name": "getAllCityBets",
      "outputs": [
        {
          "name": "",
          "type": "bytes32[]"
        }
      ],
      "payable": false,
      "stateMutability": "view",
      "type": "function"
    },
    {
      "constant": true,
      "inputs": [
        {
          "name": "_betId",
          "type": "bytes32"
        }
      ],
      "name": "getCityBet",
      "outputs": [
        {
          "name": "betId",
          "type": "bytes32"
        },
        {
          "name": "city_id",
          "type": "string"
        },
        {
          "name": "name",
          "type": "string"
        },
        {
          "name": "weather_date",
          "type": "uint256"
        },
        {
          "name": "outcome",
          "type": "uint8"
        },
        {
          "name": "quotering",
          "type": "uint256"
        },
        {
          "name": "winning_degree",
          "type": "int256"
        }
      ],
      "payable": false,
      "stateMutability": "view",
      "type": "function"
    },
    {
      "constant": true,
      "inputs": [
        {
          "name": "_pending",
          "type": "bool"
        }
      ],
      "name": "getMostRecentCityBet",
      "outputs": [
        {
          "name": "betId",
          "type": "bytes32"
        },
        {
          "name": "city_id",
          "type": "string"
        },
        {
          "name": "name",
          "type": "string"
        },
        {
          "name": "weather_date",
          "type": "uint256"
        },
        {
          "name": "outcome",
          "type": "uint8"
        },
        {
          "name": "quotering",
          "type": "uint256"
        },
        {
          "name": "winning_degree",
          "type": "int256"
        }
      ],
      "payable": false,
      "stateMutability": "view",
      "type": "function"
    },
    {
      "constant": true,
      "inputs": [],
      "name": "testConnection",
      "outputs": [
        {
          "name": "",
          "type": "bool"
        }
      ],
      "payable": false,
      "stateMutability": "pure",
      "type": "function"
    },
    {
      "constant": true,
      "inputs": [],
      "name": "getAddress",
      "outputs": [
        {
          "name": "",
          "type": "address"
        }
      ],
      "payable": false,
      "stateMutability": "view",
      "type": "function"
    },
    {
      "constant": false,
      "inputs": [],
      "name": "addTestData",
      "outputs": [],
      "payable": false,
      "stateMutability": "nonpayable",
      "type": "function"
    }
  ],
  "bytecode": "0x6080604052336000806101000a81548173ffffffffffffffffffffffffffffffffffffffff021916908373ffffffffffffffffffffffffffffffffffffffff16021790555061219c806100536000396000f3fe6080604052600436106100ba576000357c0100000000000000000000000000000000000000000000000000000000900463ffffffff1680632b85e9f8146100bf5780633412a15c1461010257806338cc48311461012d578063676daad6146101585780636f580a2c14610195578063744d11aa146101c05780637898d334146101eb5780638da5cb5b14610214578063a212b4541461023f578063dcbbb38314610256578063f22233ca14610293578063f2fde38b146102d6575b600080fd5b3480156100cb57600080fd5b506100e660048036036100e19190810190611baa565b6102ff565b6040516100f99796959493929190611ecd565b60405180910390f35b34801561010e57600080fd5b5061011761037e565b6040516101249190611e97565b60405180910390f35b34801561013957600080fd5b50610142610387565b60405161014f9190611e5a565b60405180910390f35b34801561016457600080fd5b5061017f600480360361017a9190810190611c4b565b61038f565b60405161018c9190611eb2565b60405180910390f35b3480156101a157600080fd5b506101aa61063c565b6040516101b79190611e75565b60405180910390f35b3480156101cc57600080fd5b506101d56107be565b6040516101e29190611e75565b60405180910390f35b3480156101f757600080fd5b50610212600480360361020d9190810190611bfc565b61087d565b005b34801561022057600080fd5b506102296109fc565b6040516102369190611e5a565b60405180910390f35b34801561024b57600080fd5b50610254610a21565b005b34801561026257600080fd5b5061027d60048036036102789190810190611bd3565b61125e565b60405161028a9190611e97565b60405180910390f35b34801561029f57600080fd5b506102ba60048036036102b59190810190611bd3565b61129b565b6040516102cd9796959493929190611ecd565b60405180910390f35b3480156102e257600080fd5b506102fd60048036036102f89190810190611b81565b6114cb565b005b60006060806000806000806000806001029050606089156103295761032261063c565b9050610334565b6103316107be565b90505b60008151111561035a5780600081518110151561034d57fe5b9060200190602002015191505b6103638261129b565b98509850985098509850985098505050919395979092949650565b60006001905090565b600030905090565b60008060009054906101000a900473ffffffffffffffffffffffffffffffffffffffff1673ffffffffffffffffffffffffffffffffffffffff163373ffffffffffffffffffffffffffffffffffffffff16141515610422576040517f08c379a000000000000000000000000000000000000000000000000000000000815260040161041990611f8a565b60405180910390fd5b600083836040516020018083805190602001908083835b60208310151561045e5780518252602082019150602081019050602083039250610439565b6001836020036101000a038019825116818451168082178552505050505050905001828152602001925050506040516020818303038152906040528051906020012090506000600b90506104b18261125e565b1515156104f3576040517f08c379a00000000000000000000000000000000000000000000000000000000081526004016104ea90611f6a565b60405180910390fd5b60006001600260e0604051908101604052808681526020018a81526020018981526020018881526020016000600181111561052a57fe5b81526020018581526020017fffffffffffffffffffffffffffffffffffffffffffffffffffffffffffffff9c815250908060018154018082558091505090600182039060005260206000209060070201600090919290919091506000820151816000015560208201518160010190805190602001906105aa9291906119ea565b5060408201518160020190805190602001906105c79291906119ea565b506060820151816003015560808201518160040160006101000a81548160ff021916908360018111156105f657fe5b021790555060a0820151816005015560c0820151816006015550500390506001810160016000858152602001908152602001600020819055508293505050509392505050565b6060600080905060008090505b6002805490508110156106b8576000600181111561066357fe5b60028281548110151561067257fe5b906000526020600020906007020160040160009054906101000a900460ff16600181111561069c57fe5b14156106ab5781806001019250505b8080600101915050610649565b506060816040519080825280602002602001820160405280156106ea5781602001602082028038833980820191505090505b50905060008211156107b6576000809050600060028054905090505b60008111156107b3576000600181111561071c57fe5b60026001830381548110151561072e57fe5b906000526020600020906007020160040160009054906101000a900460ff16600181111561075857fe5b14156107a55760026001820381548110151561077057fe5b906000526020600020906007020160000154838380600101945081518110151561079657fe5b90602001906020020181815250505b808060019003915050610706565b50505b809250505090565b6060806002805490506040519080825280602002602001820160405280156107f55781602001602082028038833980820191505090505b50905060006002805490501115610876576000809050600060028054905090505b60008111156108735760026001820381548110151561083157fe5b906000526020600020906007020160000154838380600101945081518110151561085757fe5b9060200190602002018181525050808060019003915050610816565b50505b8091505090565b6000809054906101000a900473ffffffffffffffffffffffffffffffffffffffff1673ffffffffffffffffffffffffffffffffffffffff163373ffffffffffffffffffffffffffffffffffffffff1614151561090e576040517f08c379a000000000000000000000000000000000000000000000000000000000815260040161090590611f8a565b60405180910390fd5b6109178361125e565b1515610958576040517f08c379a000000000000000000000000000000000000000000000000000000000815260040161094f90611f4a565b60405180910390fd5b60006109638461168c565b9050600060028281548110151561097657fe5b9060005260206000209060070201905060018081111561099257fe5b84600181111561099e57fe5b14156109ca57838160040160006101000a81548160ff021916908360018111156109c457fe5b02179055505b6001808111156109d657fe5b8460018111156109e257fe5b14156109f5578260000b81600601819055505b5050505050565b6000809054906101000a900473ffffffffffffffffffffffffffffffffffffffff1681565b6000809054906101000a900473ffffffffffffffffffffffffffffffffffffffff1673ffffffffffffffffffffffffffffffffffffffff163373ffffffffffffffffffffffffffffffffffffffff16141515610ab2576040517f08c379a0000000000000000000000000000000000000000000000000000000008152600401610aa990611f8a565b60405180910390fd5b610b8b6040805190810160405280600781526020017f32343731383833000000000000000000000000000000000000000000000000008152506040805190810160405280600981526020017f526f7474657264616d0000000000000000000000000000000000000000000000815250610b86610100604051908101604052806107e261ffff168152602001600860ff168152602001600d60ff168152602001600060ff168152602001600060ff168152602001600060ff168152602001600060ff168152602001600060ff168152506116ab565b61038f565b50610c656040805190810160405280600781526020017f32333239393239000000000000000000000000000000000000000000000000008152506040805190810160405280600981526020017f416d7374657264616d0000000000000000000000000000000000000000000000815250610c60610100604051908101604052806107e261ffff168152602001600860ff168152602001600f60ff168152602001600060ff168152602001600060ff168152602001600060ff168152602001600060ff168152602001600060ff168152506116ab565b61038f565b50610d3f6040805190810160405280600781526020017f34353634363435000000000000000000000000000000000000000000000000008152506040805190810160405280600781526020017f5574726563687400000000000000000000000000000000000000000000000000815250610d3a610100604051908101604052806107e261ffff168152602001600960ff168152602001600360ff168152602001600060ff168152602001600060ff168152602001600060ff168152602001600060ff168152602001600060ff168152506116ab565b61038f565b50610e196040805190810160405280600781526020017f33343532353534000000000000000000000000000000000000000000000000008152506040805190810160405280600981526020017f47726f6e696e67656e0000000000000000000000000000000000000000000000815250610e14610100604051908101604052806107e261ffff168152602001600960ff168152602001600360ff168152602001600060ff168152602001600060ff168152602001600060ff168152602001600060ff168152602001600060ff168152506116ab565b61038f565b50610ef36040805190810160405280600781526020017f32333432353535000000000000000000000000000000000000000000000000008152506040805190810160405280600a81526020017f4d61617374726963687400000000000000000000000000000000000000000000815250610eee610100604051908101604052806107e261ffff168152602001600960ff168152602001601560ff168152602001600060ff168152602001600060ff168152602001600060ff168152602001600060ff168152602001600060ff168152506116ab565b61038f565b50610fcd6040805190810160405280600781526020017f34353634363534000000000000000000000000000000000000000000000000008152506040805190810160405280600781526020017f486161726c656d00000000000000000000000000000000000000000000000000815250610fc8610100604051908101604052806107e261ffff168152602001600960ff168152602001601d60ff168152602001600060ff168152602001600060ff168152602001600060ff168152602001600060ff168152602001600060ff168152506116ab565b61038f565b506110a76040805190810160405280600781526020017f33363535343633000000000000000000000000000000000000000000000000008152506040805190810160405280600981526020017f4f766572736368696500000000000000000000000000000000000000000000008152506110a2610100604051908101604052806107e261ffff168152602001600a60ff168152602001600a60ff168152602001600060ff168152602001600060ff168152602001600060ff168152602001600060ff168152602001600060ff168152506116ab565b61038f565b506111816040805190810160405280600781526020017f33343534333434000000000000000000000000000000000000000000000000008152506040805190810160405280600881526020017f536368696564616d00000000000000000000000000000000000000000000000081525061117c610100604051908101604052806107e261ffff168152602001600b60ff168152602001600b60ff168152602001600060ff168152602001600060ff168152602001600060ff168152602001600060ff168152602001600060ff168152506116ab565b61038f565b5061125b6040805190810160405280600781526020017f33323438323238000000000000000000000000000000000000000000000000008152506040805190810160405280600781526020017f5370616e67656e00000000000000000000000000000000000000000000000000815250611256610100604051908101604052806107e261ffff168152602001600b60ff168152602001600c60ff168152602001600060ff168152602001600060ff168152602001600060ff168152602001600060ff168152602001600060ff168152506116ab565b61038f565b50565b60008060028054905014156112765760009050611296565b600060016000848152602001908152602001600020549050600081119150505b919050565b60006060806000806000806112af8861125e565b1561145757600060026112c18a61168c565b8154811015156112cd57fe5b906000526020600020906007020190508060000154816001018260020183600301548460040160009054906101000a900460ff1685600501548660060154858054600181600116156101000203166002900480601f0160208091040260200160405190810160405280929190818152602001828054600181600116156101000203166002900480156113a05780601f10611375576101008083540402835291602001916113a0565b820191906000526020600020905b81548152906001019060200180831161138357829003601f168201915b50505050509550848054600181600116156101000203166002900480601f01602080910402602001604051908101604052809291908181526020018280546001816001161561010002031660029004801561143c5780601f106114115761010080835404028352916020019161143c565b820191906000526020600020905b81548152906001019060200180831161141f57829003601f168201915b505050505094509750975097509750975097509750506114c0565b8760008060007fffffffffffffffffffffffffffffffffffffffffffffffffffffffffffffffff60206040519081016040528060008152509392919060206040519081016040528060008152509392919083935081915080905096509650965096509650965096505b919395979092949650565b6000809054906101000a900473ffffffffffffffffffffffffffffffffffffffff1673ffffffffffffffffffffffffffffffffffffffff163373ffffffffffffffffffffffffffffffffffffffff1614151561155c576040517f08c379a000000000000000000000000000000000000000000000000000000000815260040161155390611f8a565b60405180910390fd5b600073ffffffffffffffffffffffffffffffffffffffff168173ffffffffffffffffffffffffffffffffffffffff16141515156115ce576040517f08c379a00000000000000000000000000000000000000000000000000000000081526004016115c590611f8a565b60405180910390fd5b8073ffffffffffffffffffffffffffffffffffffffff166000809054906101000a900473ffffffffffffffffffffffffffffffffffffffff1673ffffffffffffffffffffffffffffffffffffffff167f8be0079c531659141344cd1fd0a4f28419497f9722a3daafe3b4186f6b6457e060405160405180910390a3806000806101000a81548173ffffffffffffffffffffffffffffffffffffffff021916908373ffffffffffffffffffffffffffffffffffffffff16021790555050565b6000600180600084815260200190815260200160002054039050919050565b6000806107b290505b826000015161ffff168161ffff1610156116fb576116d181611969565b156116e4576301e28500820191506116ee565b6301e13380820191505b80806001019150506116b4565b611703611a6a565b601f816000600c8110151561171457fe5b602002019060ff16908160ff16815250506117328460000151611969565b1561175e57601d816001600c8110151561174857fe5b602002019060ff16908160ff1681525050611781565b601c816001600c8110151561176f57fe5b602002019060ff16908160ff16815250505b601f816002600c8110151561179257fe5b602002019060ff16908160ff1681525050601e816003600c811015156117b457fe5b602002019060ff16908160ff1681525050601f816004600c811015156117d657fe5b602002019060ff16908160ff1681525050601e816005600c811015156117f857fe5b602002019060ff16908160ff1681525050601f816006600c8110151561181a57fe5b602002019060ff16908160ff1681525050601f816007600c8110151561183c57fe5b602002019060ff16908160ff1681525050601e816008600c8110151561185e57fe5b602002019060ff16908160ff1681525050601f816009600c8110151561188057fe5b602002019060ff16908160ff1681525050601e81600a600c811015156118a257fe5b602002019060ff16908160ff1681525050601f81600b600c811015156118c457fe5b602002019060ff16908160ff1681525050600191505b836020015160ff168261ffff16101561192057806001830361ffff16600c8110151561190257fe5b602002015160ff1662015180028301925081806001019250506118da565b600184604001510360ff16620151800283019250836060015160ff16610e100283019250836080015160ff16603c02830192508360a0015160ff16830192508292505050919050565b60008060048361ffff1681151561197c57fe5b0661ffff1614151561199157600090506119e5565b600060648361ffff168115156119a357fe5b0661ffff161415156119b857600190506119e5565b60006101908361ffff168115156119cb57fe5b0661ffff161415156119e057600090506119e5565b600190505b919050565b828054600181600116156101000203166002900490600052602060002090601f016020900481019282601f10611a2b57805160ff1916838001178555611a59565b82800160010185558215611a59579182015b82811115611a58578251825591602001919060010190611a3d565b5b509050611a669190611a8e565b5090565b61018060405190810160405280600c90602082028038833980820191505090505090565b611ab091905b80821115611aac576000816000905550600101611a94565b5090565b90565b6000611abf82356120a5565b905092915050565b6000611ad382356120b7565b905092915050565b6000611ae782356120c3565b905092915050565b6000611afb82356120cd565b905092915050565b6000611b0f82356120e6565b905092915050565b600082601f8301121515611b2a57600080fd5b8135611b3d611b3882611fd7565b611faa565b91508082526020830160208301858383011115611b5957600080fd5b611b6483828461210f565b50505092915050565b6000611b7982356120f3565b905092915050565b600060208284031215611b9357600080fd5b6000611ba184828501611ab3565b91505092915050565b600060208284031215611bbc57600080fd5b6000611bca84828501611ac7565b91505092915050565b600060208284031215611be557600080fd5b6000611bf384828501611adb565b91505092915050565b600080600060608486031215611c1157600080fd5b6000611c1f86828701611adb565b9350506020611c3086828701611aef565b9250506040611c4186828701611b03565b9150509250925092565b600080600060608486031215611c6057600080fd5b600084013567ffffffffffffffff811115611c7a57600080fd5b611c8686828701611b17565b935050602084013567ffffffffffffffff811115611ca357600080fd5b611caf86828701611b17565b9250506040611cc086828701611b6d565b9150509250925092565b611cd381612033565b82525050565b6000611ce482612010565b808452602084019350611cf683612003565b60005b82811015611d2857611d0c868351611d43565b611d1582612026565b9150602086019550600181019050611cf9565b50849250505092915050565b611d3d81612045565b82525050565b611d4c81612051565b82525050565b611d5b816120fd565b82525050565b611d6a81612071565b82525050565b6000611d7b8261201b565b808452611d8f81602086016020860161211e565b611d9881612151565b602085010191505092915050565b6000600e82527f646f6573206e6f742065786973740000000000000000000000000000000000006020830152604082019050919050565b6000601282527f646f657320657869737420616c726561647900000000000000000000000000006020830152604082019050919050565b6000601d82527f796f75277265206e6f7420746865206f776e65722c20676f20617761790000006020830152604082019050919050565b611e548161209b565b82525050565b6000602082019050611e6f6000830184611cca565b92915050565b60006020820190508181036000830152611e8f8184611cd9565b905092915050565b6000602082019050611eac6000830184611d34565b92915050565b6000602082019050611ec76000830184611d43565b92915050565b600060e082019050611ee2600083018a611d43565b8181036020830152611ef48189611d70565b90508181036040830152611f088188611d70565b9050611f176060830187611e4b565b611f246080830186611d52565b611f3160a0830185611e4b565b611f3e60c0830184611d61565b98975050505050505050565b60006020820190508181036000830152611f6381611da6565b9050919050565b60006020820190508181036000830152611f8381611ddd565b9050919050565b60006020820190508181036000830152611fa381611e14565b9050919050565b6000604051905081810181811067ffffffffffffffff82111715611fcd57600080fd5b8060405250919050565b600067ffffffffffffffff821115611fee57600080fd5b601f19601f8301169050602081019050919050565b6000602082019050919050565b600081519050919050565b600081519050919050565b6000602082019050919050565b600061203e8261207b565b9050919050565b60008115159050919050565b6000819050919050565b600060028210151561206957fe5b819050919050565b6000819050919050565b600073ffffffffffffffffffffffffffffffffffffffff82169050919050565b6000819050919050565b60006120b08261207b565b9050919050565b60008115159050919050565b6000819050919050565b60006002821015156120de57600080fd5b819050919050565b60008160000b9050919050565b6000819050919050565b60006121088261205b565b9050919050565b82818337600083830152505050565b60005b8381101561213c578082015181840152602081019050612121565b8381111561214b576000848401525b50505050565b6000601f19601f830116905091905056fea265627a7a72305820d32f1abb161f9d01ed6ac12ff013b5ea66594eb2a769bc06572643eafd5e42146c6578706572696d656e74616cf50037",
  "source": "pragma solidity ^0.5.0;\r\npragma experimental ABIEncoderV2;\r\n\r\nimport \"./Ownable.sol\";\r\nimport \"./DateLib.sol\";\r\n\r\n/*\r\nTEST: \r\n- testConnection\r\n- getAddress\r\n- cityBetExists(0)\r\n- cityBetExists(1)\r\n- declareOutcome(0, 2)\r\n- getPendingCityBets()\r\n- getAllCityBets()\r\n- getCityBet(0)\r\n- getMostRecentCityBet(true)\r\n- addTestData()\r\n- cityBetExists(0)\r\n- cityBetExists(1)\r\n- declareOutcome(0, 2)\r\n- getPendingCityBets()\r\n- getAllCityBets()\r\n- getCityBet(0)\r\n- getMostRecentCityBet(true)\r\n- getMostRecentCityBet(false)\r\n- getCityBet(0x...)\r\n- declareOutcome(0x..., 2)\r\n- getMostRecentCityBet(true)\r\n- getMostRecentCityBet(false)\r\n- getCityBet(0x...)\r\n- add duplicate CityBet\r\n*/\r\n\r\n// http://api.openweathermap.org/data/2.5/forecast?q=Rotterdam,nl&units=metric&APPID=55e3d06cfe25b54ec349eae880b98d57\r\n// voor oproepen 5 dagen weersvoorspelling data voor Rotterdam\r\n// http://api.openweathermap.org/data/2.5/weather?q=Rotterdam,nl&units=metric&APPID=55e3d06cfe25b54ec349eae880b98d57\r\n// voor huidige weer van een bepaalde stad, in dit geval voor Rotterdam\r\n\r\ncontract WeatherOracle is Ownable {\r\n  mapping(bytes32 => uint) cityIdToIndex;\r\n    CityBet[] citybets;\r\n\r\n     using DateLib for DateLib.DateTime;\r\n\r\n    //defines a CityBet along with its outcome\r\n    struct CityBet {\r\n        bytes32 betId; //id van de bet\r\n        string city_id; //id van city\r\n        string name;  // naam van de stad\r\n        uint weather_date; //\r\n        BetOutcome outcome; // outcome van de weddenschap\r\n        uint quotering;\r\n       // WeatherData weather;\r\n        int winning_degree; // Welke temperatuur het is geworden\r\n    }\r\n\r\n    // struct WeatherData {\r\n    //   int8 humidity;  /// @param humidity is how moist the air is..\r\n    //   int8 cloudPercentage; /// @param cloudPercentage is how much cloudiness there is 100 is max, 0 is min\r\n    //   int8 spanIndex; ///  @param spanIndex is how long in advance the bet is made before the bet finishes.\r\n    // }\r\n\r\n    enum BetOutcome {\r\n        Pending,    //day has not come yet to decision\r\n        Decided     //index of participant who is the winning_degree\r\n    }\r\n\r\n    /// @notice returns the array index of the CityBet with the given id\r\n    /// @dev if the CityBet id is invalid, then the return value will be incorrect and may cause error; you must call cityBetExists(_betId) first!\r\n    /// @param _betId the CityBet id to get\r\n    /// @return an array index\r\n    function _getCityBetIndex(bytes32 _betId) private view returns (uint) {\r\n        return cityIdToIndex[_betId]-1;\r\n    }\r\n    /// @notice determines whether a weather forecast exists with the given id\r\n    /// @param _betId the city id to test\r\n    /// @return true if CityBet exists and id is valid\r\n    function cityBetExists(bytes32 _betId) public view returns (bool) {\r\n        if (citybets.length == 0)\r\n            return false;\r\n        uint index = cityIdToIndex[_betId];\r\n        return (index > 0);\r\n    }\r\n    /// @notice puts a new pending CityBet into the blockchain\r\n    /// @param _cityName descriptive name for the CityBet (e.g. Pac vs. Mayweather 2016)\r\n    /// @param _weather_date weather_date set for the CityBet\r\n    /// @return the unique id of the newly created CityBet\r\n        function addCityBet(string memory _cityId, string memory _cityName, uint _weather_date) public onlyOwner  returns (bytes32){\r\n\r\n        //hash the crucial info to get a unique id\r\n        bytes32 id = keccak256(abi.encodePacked(_cityName, _weather_date));\r\n        uint quotering = 11; // test\r\n\r\n        //require that the CityBet be unique (not already added)\r\n        require(!cityBetExists(id), \"does exist already\");\r\n\r\n        //add the CityBet\r\n        uint newIndex = citybets.push(CityBet(id, _cityId, _cityName, _weather_date, BetOutcome.Pending, quotering, -100))-1;\r\n        cityIdToIndex[id] = newIndex+1;\r\n\r\n        //return the unique id of the new CityBet\r\n        return id;\r\n    }\r\n\r\n    /// @notice sets the outcome of a predefined CityBet, permanently on the blockchain\r\n    /// @param _betId unique id of the CityBet to modify\r\n    /// @param _outcome outcome of the CityBet\r\n    function declareOutcome(bytes32 _betId, BetOutcome _outcome, int8 _winning_degree) external onlyOwner {\r\n\r\n        //require that it exists\r\n        require(cityBetExists(_betId), \"does not exist\");\r\n\r\n        //get the CityBet\r\n        uint index = _getCityBetIndex(_betId);\r\n        CityBet storage theCityBet = citybets[index];\r\n\r\n        if (_outcome == BetOutcome.Decided)\r\n         //   require(_winning_degree >= 0 && theMatch.participantCount > uint8(_winning_degree), \"invalid winning_degree\");\r\n\r\n        //set the outcome\r\n        theCityBet.outcome = _outcome;\r\n        //set the winning_degree (if there is one)\r\n        if (_outcome == BetOutcome.Decided)\r\n            theCityBet.winning_degree = _winning_degree;\r\n        }\r\n\r\n    /// @notice gets the unique ids of all pending citybets, in reverse chronological order\r\n    /// @return an array of unique CityBet ids\r\n    function getPendingCityBets() public view returns (bytes32[] memory) {\r\n        uint count = 0;\r\n\r\n        //get count of pending citybets\r\n        for (uint i = 0; i < citybets.length; i++) {\r\n            if (citybets[i].outcome == BetOutcome.Pending)\r\n                count++;\r\n        }\r\n\r\n        //collect up all the pending citybets\r\n        bytes32[] memory output = new bytes32[](count);\r\n\r\n        if (count > 0) {\r\n            uint index = 0;\r\n            for (uint n = citybets.length; n > 0; n--) {\r\n                if (citybets[n-1].outcome == BetOutcome.Pending)\r\n                    output[index++] = citybets[n-1].betId;\r\n            }\r\n        }\r\n\r\n        return output;\r\n    }\r\n\r\n    /// @notice gets the unique ids of citybets, pending and decided, in reverse chronological order\r\n    /// @return an array of unique CityBet ids\r\n    function getAllCityBets() public view returns (bytes32[] memory) {\r\n        bytes32[] memory output = new bytes32[](citybets.length);\r\n\r\n        //get all ids\r\n        if (citybets.length > 0) {\r\n            uint index = 0;\r\n            for (uint n = citybets.length; n > 0; n--) {\r\n                output[index++] = citybets[n-1].betId;\r\n            }\r\n        }\r\n        return output;\r\n    }\r\n\r\n    /// @notice gets the specified weather\r\n    /// @param _betId the unique id of the desired weather\r\n    /// @return CityBet data of the specified weather\r\n    function getCityBet(bytes32 _betId) public view returns (\r\n        bytes32 betId,//id van de bet\r\n        string memory city_id, //id van city\r\n        string memory name,  // naam van de stad\r\n        uint weather_date,\r\n        BetOutcome outcome, // outcome van de weddenschap\r\n       // WeatherData memory weather,\r\n        uint quotering,\r\n        int winning_degree // Welke temperatuur het is geworden\r\n     ) {\r\n        //get the weather\r\n        if (cityBetExists(_betId)) {\r\n            CityBet storage theCity = citybets[_getCityBetIndex(_betId)];\r\n            return (theCity.betId, theCity.city_id, theCity.name, theCity.weather_date, theCity.outcome, theCity.quotering, theCity.winning_degree);\r\n        }\r\n        else {\r\n            return (_betId, \"\", \"\", 0, BetOutcome.Pending, 0, -1);\r\n        }\r\n    }\r\n\r\n    /// @notice gets the most recent CityBet or pending CityBet\r\n    /// @param _pending if true, will return only the most recent pending CityBet; otherwise, returns the most recent CityBet either pending or completed\r\n    /// @return CityBet data\r\n    function getMostRecentCityBet(bool _pending) public view returns (\r\n        bytes32 betId,//betId van de bet\r\n        string memory city_id, //id van city\r\n        string memory name,  // naam van de stad\r\n        uint weather_date,\r\n        BetOutcome outcome, // outcome van de weddenschap\r\n       // WeatherData memory weather,\r\n        uint quotering,\r\n        int winning_degree // Welke temperatuur het is geworden\r\n        ) {\r\n\r\n        bytes32 id = 0;\r\n        bytes32[] memory ids;\r\n\r\n        if (_pending) {\r\n            ids = getPendingCityBets();\r\n        } else {\r\n            ids = getAllCityBets();\r\n        }\r\n        if (ids.length > 0) {\r\n            id = ids[0];\r\n        }\r\n        //by default, return a null CityBet\r\n        return getCityBet(id);\r\n    }\r\n    function testConnection() public pure returns (bool){\r\n\treturn true;\r\n    }\r\n        /// @notice gets the address of this contract\r\n    /// @return address\r\n    function getAddress() public view returns (address) {\r\n        return address(this);\r\n    }\r\n\r\n    /// @notice for testing  string memory _cityId, string memory _cityName, uint _weather_date\r\n    function addTestData() external onlyOwner {\r\n        addCityBet(\"2471883\", \"Rotterdam\", DateLib.DateTime(2018, 8, 13, 0, 0, 0, 0, 0).toUnixTimestamp());\r\n        addCityBet(\"2329929\", \"Amsterdam\", DateLib.DateTime(2018, 8, 15, 0, 0, 0, 0, 0).toUnixTimestamp());\r\n        addCityBet(\"4564645\", \"Utrecht\", DateLib.DateTime(2018, 9, 3, 0, 0, 0, 0, 0).toUnixTimestamp());\r\n        addCityBet(\"3452554\", \"Groningen\", DateLib.DateTime(2018, 9, 3, 0, 0, 0, 0, 0).toUnixTimestamp());\r\n        addCityBet(\"2342555\", \"Maastricht\", DateLib.DateTime(2018, 9, 21, 0, 0, 0, 0, 0).toUnixTimestamp());\r\n        addCityBet(\"4564654\", \"Haarlem\", DateLib.DateTime(2018, 9, 29, 0, 0, 0, 0, 0).toUnixTimestamp());\r\n        addCityBet(\"3655463\", \"Overschie\", DateLib.DateTime(2018, 10, 10, 0, 0, 0, 0, 0).toUnixTimestamp());\r\n        addCityBet(\"3454344\", \"Schiedam\", DateLib.DateTime(2018, 11, 11, 0, 0, 0, 0, 0).toUnixTimestamp());\r\n        addCityBet(\"3248228\", \"Spangen\", DateLib.DateTime(2018, 11, 12, 0, 0, 0, 0, 0).toUnixTimestamp());\r\n    }\r\n}\r\n",
  "sourcePath": "C:/Users/Nofit/Documents/GitHub/react-truffle/oracle/contracts/WeatherOracle.sol",
  "compiler": {
    "name": "solc",
    "version": "0.5.0+commit.1d4f565a.Emscripten.clang"
  },
  "schemaVersion": "3.0.9",
  "updatedAt": "2019-05-22T23:14:23.799Z",
  "devdoc": {
    "methods": {
      "addCityBet(string,string,uint256)": {
        "return": "the unique id of the newly created CityBet"
      },
      "cityBetExists(bytes32)": {
        "return": "true if CityBet exists and id is valid"
      },
      "declareOutcome(bytes32,uint8,int8)": {
        "params": {
          "_outcome": "outcome of the CityBet"
        }
      },
      "getAddress()": {
        "return": "address"
      },
      "getAllCityBets()": {
        "return": "an array of unique CityBet ids"
      },
      "getCityBet(bytes32)": {
        "return": "CityBet data of the specified weather"
      },
      "getMostRecentCityBet(bool)": {
        "return": "CityBet data"
      },
      "getPendingCityBets()": {
        "return": "an array of unique CityBet ids"
      },
      "transferOwnership(address)": {
        "details": "Allows the current owner to transfer control of the contract to a newOwner.\r",
        "params": {
          "newOwner": "The address to transfer ownership to.\r"
        }
      }
    }
  },
  "userdoc": {
    "methods": {
      "addTestData()": {
        "notice": "for testing  string memory _cityId, string memory _cityName, uint _weather_date"
      }
    }
  }
}