{
  "contractName": "WeatherOracle",
  "abi": [
    {
      "constant": true,
      "inputs": [],
      "name": "owner",
      "outputs": [
        {
          "name": "",
          "type": "address"
        }
      ],
      "payable": false,
      "stateMutability": "view",
      "type": "function"
    },
    {
      "constant": false,
      "inputs": [
        {
          "name": "newOwner",
          "type": "address"
        }
      ],
      "name": "transferOwnership",
      "outputs": [],
      "payable": false,
      "stateMutability": "nonpayable",
      "type": "function"
    },
    {
      "anonymous": false,
      "inputs": [
        {
          "indexed": true,
          "name": "previousOwner",
          "type": "address"
        },
        {
          "indexed": true,
          "name": "newOwner",
          "type": "address"
        }
      ],
      "name": "OwnershipTransferred",
      "type": "event"
    },
    {
      "constant": true,
      "inputs": [
        {
          "name": "_betId",
          "type": "bytes32"
        }
      ],
      "name": "cityBetExists",
      "outputs": [
        {
          "name": "",
          "type": "bool"
        }
      ],
      "payable": false,
      "stateMutability": "view",
      "type": "function"
    },
    {
      "constant": false,
      "inputs": [
        {
          "name": "sender",
          "type": "address"
        },
        {
          "name": "_cityId",
          "type": "string"
        },
        {
          "name": "_cityName",
          "type": "string"
        },
        {
          "name": "_inzet",
          "type": "uint256"
        },
        {
          "name": "_guess",
          "type": "uint256"
        },
        {
          "name": "_made_on",
          "type": "uint256"
        },
        {
          "name": "_weather_date",
          "type": "uint256"
        }
      ],
      "name": "addCityBet",
      "outputs": [
        {
          "name": "",
          "type": "bytes32"
        }
      ],
      "payable": false,
      "stateMutability": "nonpayable",
      "type": "function"
    },
    {
      "constant": false,
      "inputs": [
        {
          "name": "_betId",
          "type": "bytes32"
        },
        {
          "name": "_outcome",
          "type": "uint8"
        },
        {
          "name": "_winning_degree",
          "type": "int8"
        }
      ],
      "name": "declareOutcome",
      "outputs": [],
      "payable": false,
      "stateMutability": "nonpayable",
      "type": "function"
    },
    {
      "constant": true,
      "inputs": [],
      "name": "getPendingCityBets",
      "outputs": [
        {
          "name": "",
          "type": "bytes32[]"
        }
      ],
      "payable": false,
      "stateMutability": "view",
      "type": "function"
    },
    {
      "constant": true,
      "inputs": [],
      "name": "getAllCityBets",
      "outputs": [
        {
          "name": "",
          "type": "bytes32[]"
        }
      ],
      "payable": false,
      "stateMutability": "view",
      "type": "function"
    },
    {
      "constant": true,
      "inputs": [
        {
          "name": "_betId",
          "type": "bytes32"
        }
      ],
      "name": "getCityBet",
      "outputs": [
        {
          "name": "userId",
          "type": "address"
        },
        {
          "name": "betId",
          "type": "bytes32"
        },
        {
          "name": "city_id",
          "type": "string"
        },
        {
          "name": "name",
          "type": "string"
        },
        {
          "name": "inzet",
          "type": "uint256"
        },
        {
          "name": "guess",
          "type": "uint256"
        },
        {
          "name": "made_on",
          "type": "uint256"
        },
        {
          "name": "weather_date",
          "type": "uint256"
        },
        {
          "name": "outcome",
          "type": "uint8"
        },
        {
          "name": "quotering",
          "type": "uint256"
        },
        {
          "name": "winning_degree",
          "type": "int256"
        }
      ],
      "payable": false,
      "stateMutability": "view",
      "type": "function"
    },
    {
      "constant": true,
      "inputs": [
        {
          "name": "_pending",
          "type": "bool"
        }
      ],
      "name": "getMostRecentCityBet",
      "outputs": [
        {
          "name": "userId",
          "type": "address"
        },
        {
          "name": "betId",
          "type": "bytes32"
        },
        {
          "name": "city_id",
          "type": "string"
        },
        {
          "name": "name",
          "type": "string"
        },
        {
          "name": "inzet",
          "type": "uint256"
        },
        {
          "name": "guess",
          "type": "uint256"
        },
        {
          "name": "made_on",
          "type": "uint256"
        },
        {
          "name": "weather_date",
          "type": "uint256"
        },
        {
          "name": "outcome",
          "type": "uint8"
        },
        {
          "name": "quotering",
          "type": "uint256"
        },
        {
          "name": "winning_degree",
          "type": "int256"
        }
      ],
      "payable": false,
      "stateMutability": "view",
      "type": "function"
    },
    {
      "constant": true,
      "inputs": [],
      "name": "testConnection",
      "outputs": [
        {
          "name": "",
          "type": "bool"
        }
      ],
      "payable": false,
      "stateMutability": "pure",
      "type": "function"
    },
    {
      "constant": true,
      "inputs": [],
      "name": "getAddress",
      "outputs": [
        {
          "name": "",
          "type": "address"
        }
      ],
      "payable": false,
      "stateMutability": "view",
      "type": "function"
    },
    {
      "constant": false,
      "inputs": [],
      "name": "addTestData",
      "outputs": [],
      "payable": false,
      "stateMutability": "nonpayable",
      "type": "function"
    }
  ],
  "bytecode": "0x6080604052336000806101000a81548173ffffffffffffffffffffffffffffffffffffffff021916908373ffffffffffffffffffffffffffffffffffffffff16021790555061171d806100536000396000f3fe6080604052600436106100ba576000357c0100000000000000000000000000000000000000000000000000000000900463ffffffff1680632b85e9f8146100bf5780633412a15c1461025a57806338cc48311461028957806366a9addc146102e05780636f580a2c1461049b578063744d11aa146105075780637898d334146105735780638da5cb5b146105c8578063a212b4541461061f578063dcbbb38314610636578063f22233ca14610689578063f2fde38b14610822575b600080fd5b3480156100cb57600080fd5b506100fa600480360360208110156100e257600080fd5b81019080803515159060200190929190505050610873565b604051808c73ffffffffffffffffffffffffffffffffffffffff1673ffffffffffffffffffffffffffffffffffffffff1681526020018b815260200180602001806020018a815260200189815260200188815260200187815260200186600181111561016257fe5b60ff16815260200185815260200184815260200183810383528c818151815260200191508051906020019080838360005b838110156101ae578082015181840152602081019050610193565b50505050905090810190601f1680156101db5780820380516001836020036101000a031916815260200191505b5083810382528b818151815260200191508051906020019080838360005b838110156102145780820151818401526020810190506101f9565b50505050905090810190601f1680156102415780820380516001836020036101000a031916815260200191505b509d505050505050505050505050505060405180910390f35b34801561026657600080fd5b5061026f610904565b604051808215151515815260200191505060405180910390f35b34801561029557600080fd5b5061029e61090d565b604051808273ffffffffffffffffffffffffffffffffffffffff1673ffffffffffffffffffffffffffffffffffffffff16815260200191505060405180910390f35b3480156102ec57600080fd5b50610485600480360360e081101561030357600080fd5b81019080803573ffffffffffffffffffffffffffffffffffffffff1690602001909291908035906020019064010000000081111561034057600080fd5b82018360208201111561035257600080fd5b8035906020019184600183028401116401000000008311171561037457600080fd5b91908080601f016020809104026020016040519081016040528093929190818152602001838380828437600081840152601f19601f820116905080830192505050505050509192919290803590602001906401000000008111156103d757600080fd5b8201836020820111156103e957600080fd5b8035906020019184600183028401116401000000008311171561040b57600080fd5b91908080601f016020809104026020016040519081016040528093929190818152602001838380828437600081840152601f19601f82011690508083019250505050505050919291929080359060200190929190803590602001909291908035906020019092919080359060200190929190505050610915565b6040518082815260200191505060405180910390f35b3480156104a757600080fd5b506104b0610c41565b6040518080602001828103825283818151815260200191508051906020019060200280838360005b838110156104f35780820151818401526020810190506104d8565b505050509050019250505060405180910390f35b34801561051357600080fd5b5061051c610dc3565b6040518080602001828103825283818151815260200191508051906020019060200280838360005b8381101561055f578082015181840152602081019050610544565b505050509050019250505060405180910390f35b34801561057f57600080fd5b506105c66004803603606081101561059657600080fd5b8101908080359060200190929190803560ff169060200190929190803560000b9060200190929190505050610e82565b005b3480156105d457600080fd5b506105dd611048565b604051808273ffffffffffffffffffffffffffffffffffffffff1673ffffffffffffffffffffffffffffffffffffffff16815260200191505060405180910390f35b34801561062b57600080fd5b5061063461106d565b005b34801561064257600080fd5b5061066f6004803603602081101561065957600080fd5b8101908080359060200190929190505050611133565b604051808215151515815260200191505060405180910390f35b34801561069557600080fd5b506106c2600480360360208110156106ac57600080fd5b8101908080359060200190929190505050611170565b604051808c73ffffffffffffffffffffffffffffffffffffffff1673ffffffffffffffffffffffffffffffffffffffff1681526020018b815260200180602001806020018a815260200189815260200188815260200187815260200186600181111561072a57fe5b60ff16815260200185815260200184815260200183810383528c818151815260200191508051906020019080838360005b8381101561077657808201518184015260208101905061075b565b50505050905090810190601f1680156107a35780820380516001836020036101000a031916815260200191505b5083810382528b818151815260200191508051906020019080838360005b838110156107dc5780820151818401526020810190506107c1565b50505050905090810190601f1680156108095780820380516001836020036101000a031916815260200191505b509d505050505050505050505050505060405180910390f35b34801561082e57600080fd5b506108716004803603602081101561084557600080fd5b81019080803573ffffffffffffffffffffffffffffffffffffffff169060200190929190505050611406565b005b6000806060806000806000806000806000806000600102905060608d156108a35761089c610c41565b90506108ae565b6108ab610dc3565b90505b6000815111156108d4578060008151811015156108c757fe5b9060200190602002015191505b6108dd82611170565b9c509c509c509c509c509c509c509c509c509c509c50505091939597999b90929496989a50565b60006001905090565b600030905090565b60008086838a6040516020018084805190602001908083835b602083101515610953578051825260208201915060208101905060208303925061092e565b6001836020036101000a0380198251168184511680821785525050505050509050018381526020018273ffffffffffffffffffffffffffffffffffffffff1673ffffffffffffffffffffffffffffffffffffffff166c0100000000000000000000000002815260140193505050506040516020818303038152906040528051906020012090506000600b90506109e882611133565b151515610a5d576040517f08c379a00000000000000000000000000000000000000000000000000000000081526004018080602001828103825260128152602001807f646f657320657869737420616c7265616479000000000000000000000000000081525060200191505060405180910390fd5b600060016002610160604051908101604052808e73ffffffffffffffffffffffffffffffffffffffff1681526020018681526020018d81526020018c81526020018b81526020018a815260200189815260200188815260200160006001811115610ac357fe5b81526020018581526020017fffffffffffffffffffffffffffffffffffffffffffffffffffffffffffffff9c8152509080600181540180825580915050906001820390600052602060002090600b02016000909192909190915060008201518160000160006101000a81548173ffffffffffffffffffffffffffffffffffffffff021916908373ffffffffffffffffffffffffffffffffffffffff160217905550602082015181600101556040820151816002019080519060200190610b8a92919061164c565b506060820151816003019080519060200190610ba792919061164c565b506080820151816004015560a0820151816005015560c0820151816006015560e082015181600701556101008201518160080160006101000a81548160ff02191690836001811115610bf557fe5b0217905550610120820151816009015561014082015181600a01555050039050600181016001600085815260200190815260200160002081905550829350505050979650505050505050565b6060600080905060008090505b600280549050811015610cbd5760006001811115610c6857fe5b600282815481101515610c7757fe5b90600052602060002090600b020160080160009054906101000a900460ff166001811115610ca157fe5b1415610cb05781806001019250505b8080600101915050610c4e565b50606081604051908082528060200260200182016040528015610cef5781602001602082028038833980820191505090505b5090506000821115610dbb576000809050600060028054905090505b6000811115610db85760006001811115610d2157fe5b600260018303815481101515610d3357fe5b90600052602060002090600b020160080160009054906101000a900460ff166001811115610d5d57fe5b1415610daa57600260018203815481101515610d7557fe5b90600052602060002090600b0201600101548383806001019450815181101515610d9b57fe5b90602001906020020181815250505b808060019003915050610d0b565b50505b809250505090565b606080600280549050604051908082528060200260200182016040528015610dfa5781602001602082028038833980820191505090505b50905060006002805490501115610e7b576000809050600060028054905090505b6000811115610e7857600260018203815481101515610e3657fe5b90600052602060002090600b0201600101548383806001019450815181101515610e5c57fe5b9060200190602002018181525050808060019003915050610e1b565b50505b8091505090565b6000809054906101000a900473ffffffffffffffffffffffffffffffffffffffff1673ffffffffffffffffffffffffffffffffffffffff163373ffffffffffffffffffffffffffffffffffffffff16141515610f46576040517f08c379a000000000000000000000000000000000000000000000000000000000815260040180806020018281038252601d8152602001807f796f75277265206e6f7420746865206f776e65722c20676f206177617900000081525060200191505060405180910390fd5b610f4f83611133565b1515610fc3576040517f08c379a000000000000000000000000000000000000000000000000000000000815260040180806020018281038252600e8152602001807f646f6573206e6f7420657869737400000000000000000000000000000000000081525060200191505060405180910390fd5b6000610fce8461162d565b90506000600282815481101515610fe157fe5b90600052602060002090600b02019050838160080160006101000a81548160ff0219169083600181111561101157fe5b021790555060018081111561102257fe5b84600181111561102e57fe5b1415611041578260000b81600a01819055505b5050505050565b6000809054906101000a900473ffffffffffffffffffffffffffffffffffffffff1681565b6000809054906101000a900473ffffffffffffffffffffffffffffffffffffffff1673ffffffffffffffffffffffffffffffffffffffff163373ffffffffffffffffffffffffffffffffffffffff16141515611131576040517f08c379a000000000000000000000000000000000000000000000000000000000815260040180806020018281038252601d8152602001807f796f75277265206e6f7420746865206f776e65722c20676f206177617900000081525060200191505060405180910390fd5b565b600080600280549050141561114b576000905061116b565b600060016000848152602001908152602001600020549050600081119150505b919050565b600080606080600080600080600080600061118a8c611133565b1561136e576000600261119c8e61162d565b8154811015156111a857fe5b90600052602060002090600b020190508060000160009054906101000a900473ffffffffffffffffffffffffffffffffffffffff168160010154826002018360030184600401548560050154866006015487600701548860080160009054906101000a900460ff1689600901548a600a0154888054600181600116156101000203166002900480601f0160208091040260200160405190810160405280929190818152602001828054600181600116156101000203166002900480156112af5780601f10611284576101008083540402835291602001916112af565b820191906000526020600020905b81548152906001019060200180831161129257829003601f168201915b50505050509850878054600181600116156101000203166002900480601f01602080910402602001604051908101604052809291908181526020018280546001816001161561010002031660029004801561134b5780601f106113205761010080835404028352916020019161134b565b820191906000526020600020905b81548152906001019060200180831161132e57829003601f168201915b505050505097509b509b509b509b509b509b509b509b509b509b509b50506113f7565b60008c6000806000806000807fffffffffffffffffffffffffffffffffffffffffffffffffffffffffffffffff8898506020604051908101604052806000815250969594939291906020604051908101604052806000815250969594939291908696508595508494508393508191508090509a509a509a509a509a509a509a509a509a509a509a505b91939597999b90929496989a50565b6000809054906101000a900473ffffffffffffffffffffffffffffffffffffffff1673ffffffffffffffffffffffffffffffffffffffff163373ffffffffffffffffffffffffffffffffffffffff161415156114ca576040517f08c379a000000000000000000000000000000000000000000000000000000000815260040180806020018281038252601d8152602001807f796f75277265206e6f7420746865206f776e65722c20676f206177617900000081525060200191505060405180910390fd5b600073ffffffffffffffffffffffffffffffffffffffff168173ffffffffffffffffffffffffffffffffffffffff161415151561156f576040517f08c379a000000000000000000000000000000000000000000000000000000000815260040180806020018281038252601d8152602001807f796f75277265206e6f7420746865206f776e65722c20676f206177617900000081525060200191505060405180910390fd5b8073ffffffffffffffffffffffffffffffffffffffff166000809054906101000a900473ffffffffffffffffffffffffffffffffffffffff1673ffffffffffffffffffffffffffffffffffffffff167f8be0079c531659141344cd1fd0a4f28419497f9722a3daafe3b4186f6b6457e060405160405180910390a3806000806101000a81548173ffffffffffffffffffffffffffffffffffffffff021916908373ffffffffffffffffffffffffffffffffffffffff16021790555050565b6000600180600084815260200190815260200160002054039050919050565b828054600181600116156101000203166002900490600052602060002090601f016020900481019282601f1061168d57805160ff19168380011785556116bb565b828001600101855582156116bb579182015b828111156116ba57825182559160200191906001019061169f565b5b5090506116c891906116cc565b5090565b6116ee91905b808211156116ea5760008160009055506001016116d2565b5090565b9056fea165627a7a72305820da17b90921aff8214a2f6c56b47c5d97c345d442b94535b3a72df0655939d7520029",
  "source": "pragma solidity ^0.5.0;\r\n\r\nimport \"./Ownable.sol\";\r\nimport \"./DateLib.sol\";\r\n\r\n/*\r\nTEST:\r\n- testConnection\r\n- getAddress\r\n- cityBetExists(0)\r\n- cityBetExists(1)\r\n- declareOutcome(0, 2)\r\n- getPendingCityBets()\r\n- getAllCityBets()\r\n- getCityBet(0)\r\n- getMostRecentCityBet(true)\r\n- addTestData()\r\n- cityBetExists(0)\r\n- cityBetExists(1)\r\n- declareOutcome(0, 2)\r\n- getPendingCityBets()\r\n- getAllCityBets()\r\n- getCityBet(0)\r\n- getMostRecentCityBet(true)\r\n- getMostRecentCityBet(false)\r\n- getCityBet(0x...)\r\n- declareOutcome(0x..., 2)\r\n- getMostRecentCityBet(true)\r\n- getMostRecentCityBet(false)\r\n- getCityBet(0x...)\r\n- add duplicate CityBet\r\n*/\r\n\r\n// http://api.openweathermap.org/data/2.5/forecast?q=Rotterdam,nl&units=metric&APPID=55e3d06cfe25b54ec349eae880b98d57\r\n// voor oproepen 5 dagen weersvoorspelling data voor Rotterdam\r\n// http://api.openweathermap.org/data/2.5/weather?q=Rotterdam,nl&units=metric&APPID=55e3d06cfe25b54ec349eae880b98d57\r\n// voor huidige weer van een bepaalde stad, in dit geval voor Rotterdam\r\n\r\ncontract WeatherOracle is Ownable {\r\n  mapping(bytes32 => uint) cityIdToIndex;\r\n    CityBet[] citybets;\r\n\r\n     using DateLib for DateLib.DateTime;\r\n\r\n    //defines a CityBet along with its outcome\r\n    struct CityBet {\r\n        address userId;\r\n        bytes32 betId; //id van de bet\r\n        string city_id; //id van city\r\n        string name;  // naam van de stad\r\n        uint inzet;\r\n        uint guess;\r\n        uint made_on;  // datum wanneer de bet is gemaakt\r\n        uint weather_date; //\r\n        BetOutcome outcome; // outcome van de weddenschap\r\n        uint quotering;\r\n       // WeatherData weather;\r\n        int winning_degree; // Welke temperatuur het is geworden\r\n    }\r\n\r\n    // struct WeatherData {\r\n    //   int8 humidity;  /// @param humidity is how moist the air is..\r\n    //   int8 cloudPercentage; /// @param cloudPercentage is how much cloudiness there is 100 is max, 0 is min\r\n    //   int8 spanIndex; ///  @param spanIndex is how long in advance the bet is made before the bet finishes.\r\n    // }\r\n\r\n    enum BetOutcome {\r\n        Pending,    //day has not come yet to decision\r\n        Decided     //index of participant who is the winning_degree\r\n    }\r\n\r\n    /// @notice returns the array index of the CityBet with the given id\r\n    /// @dev if the CityBet id is invalid, then the return value will be incorrect and may cause error; you must call cityBetExists(_betId) first!\r\n    /// @param _betId the CityBet id to get\r\n    /// @return an array index\r\n    function _getCityBetIndex(bytes32 _betId) private view returns (uint) {\r\n        return cityIdToIndex[_betId]-1;\r\n    }\r\n    /// @notice determines whether a weather forecast exists with the given id\r\n    /// @param _betId the city id to test\r\n    /// @return true if CityBet exists and id is valid\r\n    function cityBetExists(bytes32 _betId) public view returns (bool) {\r\n        if (citybets.length == 0)\r\n            return false;\r\n        uint index = cityIdToIndex[_betId];\r\n        return (index > 0);\r\n    }\r\n    /// @notice puts a new pending CityBet into the blockchain\r\n    /// @param _cityName descriptive name for the CityBet (e.g. Pac vs. Mayweather 2016)\r\n    /// @param _weather_date weather_date set for the CityBet\r\n    /// @return the unique id of the newly created CityBet\r\n        function addCityBet(address sender, string memory _cityId, string memory _cityName, uint _inzet,\r\n        uint _guess, uint _made_on, uint _weather_date) public returns (bytes32){\r\n\r\n        //hash the crucial info to get a unique id\r\n        bytes32 id = keccak256(abi.encodePacked(_cityName, _weather_date, sender));\r\n        uint quotering = 11; // test\r\n\r\n        //require that the CityBet be unique (not already added)\r\n        require(!cityBetExists(id), \"does exist already\");\r\n\r\n        uint newIndex = citybets.push(CityBet(sender, id, _cityId, _cityName, _inzet, _guess, _made_on, _weather_date,\r\n        BetOutcome.Pending, quotering, -100))-1;\r\n        cityIdToIndex[id] = newIndex+1;\r\n\r\n        //return the unique id of the new CityBet\r\n        return id;\r\n    }\r\n\r\n    /// @notice sets the outcome of a predefined CityBet, permanently on the blockchain\r\n    /// @param _betId unique id of the CityBet to modify\r\n    /// @param _outcome outcome of the CityBet\r\n    function declareOutcome(bytes32 _betId, BetOutcome _outcome, int8 _winning_degree) external onlyOwner {\r\n\r\n        //require that it exists\r\n        require(cityBetExists(_betId), \"does not exist\");\r\n\r\n        //get the CityBet\r\n        uint index = _getCityBetIndex(_betId);\r\n        CityBet storage theCityBet = citybets[index];\r\n\r\n    //    if (_outcome == BetOutcome.Decided)\r\n         //   require(_winning_degree >= 0 && theMatch.participantCount > uint8(_winning_degree), \"invalid winning_degree\");\r\n\r\n        //set the outcome\r\n        theCityBet.outcome = _outcome;\r\n        //set the winning_degree (if there is one)\r\n        if (_outcome == BetOutcome.Decided)\r\n            theCityBet.winning_degree = _winning_degree;\r\n        }\r\n\r\n    /// @notice gets the unique ids of all pending citybets, in reverse chronological order\r\n    /// @return an array of unique CityBet ids\r\n    function getPendingCityBets() public view returns (bytes32[] memory) {\r\n        uint count = 0;\r\n\r\n        //get count of pending citybets\r\n        for (uint i = 0; i < citybets.length; i++) {\r\n            if (citybets[i].outcome == BetOutcome.Pending)\r\n                count++;\r\n        }\r\n\r\n        //collect up all the pending citybets\r\n        bytes32[] memory output = new bytes32[](count);\r\n\r\n        if (count > 0) {\r\n            uint index = 0;\r\n            for (uint n = citybets.length; n > 0; n--) {\r\n                if (citybets[n-1].outcome == BetOutcome.Pending)\r\n                    output[index++] = citybets[n-1].betId;\r\n            }\r\n        }\r\n\r\n        return output;\r\n    }\r\n\r\n    /// @notice gets the unique ids of citybets, pending and decided, in reverse chronological order\r\n    /// @return an array of unique CityBet ids\r\n    function getAllCityBets() public view returns (bytes32[] memory) {\r\n        bytes32[] memory output = new bytes32[](citybets.length);\r\n\r\n        //get all ids\r\n        if (citybets.length > 0) {\r\n            uint index = 0;\r\n            for (uint n = citybets.length; n > 0; n--) {\r\n                output[index++] = citybets[n-1].betId;\r\n            }\r\n        }\r\n        return output;\r\n    }\r\n\r\n    /// @notice gets the specified weather\r\n    /// @param _betId the unique id of the desired weather\r\n    /// @return CityBet data of the specified weather\r\n    function getCityBet(bytes32 _betId) public view returns (\r\n        address userId,\r\n        bytes32 betId,//id van de bet\r\n        string memory city_id, //id van city\r\n        string memory name,  // naam van de stad\r\n        uint inzet,\r\n        uint guess,\r\n        uint made_on,  // datum wanneer de bet is gemaakt\r\n        uint weather_date, //\r\n         BetOutcome outcome, // outcome van de weddenschap\r\n        uint quotering,\r\n       // WeatherData weather;\r\n        int winning_degree // Welke temperatuur het is geworden\r\n     ) {\r\n        //get the weather\r\n        if (cityBetExists(_betId)) {\r\n            CityBet storage theCity = citybets[_getCityBetIndex(_betId)];\r\n            return (theCity.userId,theCity.betId, theCity.city_id, theCity.name, theCity.inzet, theCity.guess, theCity.made_on, theCity.weather_date,\r\n            theCity.outcome, theCity.quotering, theCity.winning_degree);\r\n        }\r\n        else {\r\n            return (address(0x0), _betId, \"\", \"\", 0, 0, 0, 0, BetOutcome.Pending, 0, -1);\r\n        }\r\n    }\r\n\r\n    /// @notice gets the most recent CityBet or pending CityBet\r\n    /// @param _pending if true, will return only the most recent pending CityBet; otherwise, returns the most recent CityBet either pending or completed\r\n    /// @return CityBet data\r\n    function getMostRecentCityBet(bool _pending) public view returns (\r\n        address userId,\r\n        bytes32 betId,//betId van de bet\r\n        string memory city_id, //id van city\r\n        string memory name,  // naam van de stad\r\n        uint inzet,\r\n        uint guess,\r\n        uint made_on,  // datum wanneer de bet is gemaakt\r\n        uint weather_date, //\r\n         BetOutcome outcome, // outcome van de weddenschap\r\n        uint quotering,\r\n       // WeatherData weather;\r\n        int winning_degree // Welke temperatuur het is geworden\r\n        ) {\r\n\r\n        bytes32 id = 0;\r\n        bytes32[] memory ids;\r\n\r\n        if (_pending) {\r\n            ids = getPendingCityBets();\r\n        } else {\r\n            ids = getAllCityBets();\r\n        }\r\n        if (ids.length > 0) {\r\n            id = ids[0];\r\n        }\r\n        //by default, return a null CityBet\r\n        return getCityBet(id);\r\n    }\r\n    function testConnection() public pure returns (bool){\r\n\treturn true;\r\n    }\r\n        /// @notice gets the address of this contract\r\n    /// @return address\r\n    function getAddress() public view returns (address) {\r\n        return address(this);\r\n    }\r\n\r\n    /// @notice for testing  string memory _cityId, string memory _cityName, uint _weather_date\r\n    function addTestData() external onlyOwner {\r\n        // addCityBet(434,\"2471883\", \"Rotterdam\", 0, 0, 0, DateLib.DateTime(2018, 8, 13, 0, 0, 0, 0, 0).toUnixTimestamp());\r\n        // addCityBet(\"2329929\", \"Amsterdam\", 0, 0, 0, DateLib.DateTime(2018, 8, 15, 0, 0, 0, 0, 0).toUnixTimestamp());\r\n        // addCityBet(\"4564645\", \"Utrecht\", 0, 0, 0, DateLib.DateTime(2018, 9, 3, 0, 0, 0, 0, 0).toUnixTimestamp());\r\n        // addCityBet(\"3452554\", \"Groningen\", 0, 0, 0,  DateLib.DateTime(2018, 9, 3, 0, 0, 0, 0, 0).toUnixTimestamp());\r\n        // addCityBet(\"2342555\", \"Maastricht\",0, 0, 0,  DateLib.DateTime(2018, 9, 21, 0, 0, 0, 0, 0).toUnixTimestamp());\r\n        // addCityBet(\"4564654\", \"Haarlem\", 0, 0, 0, DateLib.DateTime(2018, 9, 29, 0, 0, 0, 0, 0).toUnixTimestamp());\r\n        // addCityBet(\"3655463\", \"Overschie\",0, 0, 0,  DateLib.DateTime(2018, 10, 10, 0, 0, 0, 0, 0).toUnixTimestamp());\r\n        // addCityBet(\"3454344\", \"Schiedam\", 0, 0, 0, DateLib.DateTime(2018, 11, 11, 0, 0, 0, 0, 0).toUnixTimestamp());\r\n        // addCityBet(\"3248228\", \"Spangen\", 0, 0, 0, DateLib.DateTime(2018, 11, 12, 0, 0, 0, 0, 0).toUnixTimestamp());\r\n    }\r\n}\r\n",
  "sourcePath": "C:/Users/Nofit/Documents/GitHub/react-truffle/oracle/contracts/WeatherOracle.sol",
  "compiler": {
    "name": "solc",
    "version": "0.5.0+commit.1d4f565a.Emscripten.clang"
  },
  "schemaVersion": "3.0.9",
  "updatedAt": "2019-05-25T09:36:35.977Z",
  "devdoc": {
    "methods": {
      "addCityBet(string,string,uint256)": {
        "return": "the unique id of the newly created CityBet"
      },
      "cityBetExists(bytes32)": {
        "return": "true if CityBet exists and id is valid"
      },
      "declareOutcome(bytes32,uint8,int8)": {
        "params": {
          "_outcome": "outcome of the CityBet"
        }
      },
      "getAddress()": {
        "return": "address"
      },
      "getAllCityBets()": {
        "return": "an array of unique CityBet ids"
      },
      "getCityBet(bytes32)": {
        "return": "CityBet data of the specified weather"
      },
      "getMostRecentCityBet(bool)": {
        "return": "CityBet data"
      },
      "getPendingCityBets()": {
        "return": "an array of unique CityBet ids"
      },
      "transferOwnership(address)": {
        "details": "Allows the current owner to transfer control of the contract to a newOwner.\r",
        "params": {
          "newOwner": "The address to transfer ownership to.\r"
        }
      },
      "addCityBet(string,string,uint256,uint256,uint256,uint256)": {
        "return": "the unique id of the newly created CityBet"
      },
      "addCityBet(address,string,string,uint256,uint256,uint256,uint256)": {
        "return": "the unique id of the newly created CityBet"
      }
    }
  },
  "userdoc": {
    "methods": {
      "addTestData()": {
        "notice": "for testing  string memory _cityId, string memory _cityName, uint _weather_date"
      }
    }
  }
}