{
  "contractName": "WeatherOracle",
  "abi": [
    {
      "constant": true,
      "inputs": [],
      "name": "owner",
      "outputs": [
        {
          "name": "",
          "type": "address"
        }
      ],
      "payable": false,
      "stateMutability": "view",
      "type": "function"
    },
    {
      "constant": false,
      "inputs": [
        {
          "name": "newOwner",
          "type": "address"
        }
      ],
      "name": "transferOwnership",
      "outputs": [],
      "payable": false,
      "stateMutability": "nonpayable",
      "type": "function"
    },
    {
      "anonymous": false,
      "inputs": [
        {
          "indexed": true,
          "name": "previousOwner",
          "type": "address"
        },
        {
          "indexed": true,
          "name": "newOwner",
          "type": "address"
        }
      ],
      "name": "OwnershipTransferred",
      "type": "event"
    },
    {
      "constant": true,
      "inputs": [
        {
          "name": "_betId",
          "type": "bytes32"
        }
      ],
      "name": "cityBetExists",
      "outputs": [
        {
          "name": "",
          "type": "bool"
        }
      ],
      "payable": false,
      "stateMutability": "view",
      "type": "function"
    },
    {
      "constant": false,
      "inputs": [
        {
          "name": "sender",
          "type": "address"
        },
        {
          "name": "_cityId",
          "type": "string"
        },
        {
          "name": "_cityName",
          "type": "string"
        },
        {
          "name": "_inzet",
          "type": "uint256"
        },
        {
          "name": "_guess",
          "type": "uint256"
        },
        {
          "name": "_made_on",
          "type": "uint256"
        },
        {
          "name": "_weather_date",
          "type": "uint256"
        }
      ],
      "name": "addCityBet",
      "outputs": [
        {
          "name": "",
          "type": "bytes32"
        }
      ],
      "payable": false,
      "stateMutability": "nonpayable",
      "type": "function"
    },
    {
      "constant": false,
      "inputs": [
        {
          "name": "_betId",
          "type": "bytes32"
        }
      ],
      "name": "declareOutcome",
      "outputs": [
        {
          "name": "userId",
          "type": "address"
        },
        {
          "name": "betId",
          "type": "bytes32"
        },
        {
          "name": "name",
          "type": "string"
        },
        {
          "name": "guess",
          "type": "uint256"
        },
        {
          "name": "weather_date",
          "type": "uint256"
        }
      ],
      "payable": false,
      "stateMutability": "nonpayable",
      "type": "function"
    },
    {
      "constant": true,
      "inputs": [],
      "name": "getPendingCityBets",
      "outputs": [
        {
          "name": "",
          "type": "bytes32[]"
        }
      ],
      "payable": false,
      "stateMutability": "view",
      "type": "function"
    },
    {
      "constant": true,
      "inputs": [],
      "name": "getAllCityBets",
      "outputs": [
        {
          "name": "",
          "type": "bytes32[]"
        }
      ],
      "payable": false,
      "stateMutability": "view",
      "type": "function"
    },
    {
      "constant": true,
      "inputs": [
        {
          "name": "_betId",
          "type": "bytes32"
        }
      ],
      "name": "getCityBet",
      "outputs": [
        {
          "name": "userId",
          "type": "address"
        },
        {
          "name": "betId",
          "type": "bytes32"
        },
        {
          "name": "city_id",
          "type": "string"
        },
        {
          "name": "name",
          "type": "string"
        },
        {
          "name": "inzet",
          "type": "uint256"
        },
        {
          "name": "guess",
          "type": "uint256"
        },
        {
          "name": "made_on",
          "type": "uint256"
        },
        {
          "name": "weather_date",
          "type": "uint256"
        },
        {
          "name": "outcome",
          "type": "uint8"
        },
        {
          "name": "quotering",
          "type": "uint256"
        },
        {
          "name": "winning_degree",
          "type": "int256"
        }
      ],
      "payable": false,
      "stateMutability": "view",
      "type": "function"
    },
    {
      "constant": true,
      "inputs": [
        {
          "name": "_pending",
          "type": "bool"
        }
      ],
      "name": "getMostRecentCityBet",
      "outputs": [
        {
          "name": "userId",
          "type": "address"
        },
        {
          "name": "betId",
          "type": "bytes32"
        },
        {
          "name": "city_id",
          "type": "string"
        },
        {
          "name": "name",
          "type": "string"
        },
        {
          "name": "inzet",
          "type": "uint256"
        },
        {
          "name": "guess",
          "type": "uint256"
        },
        {
          "name": "made_on",
          "type": "uint256"
        },
        {
          "name": "weather_date",
          "type": "uint256"
        },
        {
          "name": "outcome",
          "type": "uint8"
        },
        {
          "name": "quotering",
          "type": "uint256"
        },
        {
          "name": "winning_degree",
          "type": "int256"
        }
      ],
      "payable": false,
      "stateMutability": "view",
      "type": "function"
    },
    {
      "constant": true,
      "inputs": [],
      "name": "testConnection",
      "outputs": [
        {
          "name": "",
          "type": "bool"
        }
      ],
      "payable": false,
      "stateMutability": "pure",
      "type": "function"
    },
    {
      "constant": true,
      "inputs": [],
      "name": "getAddress",
      "outputs": [
        {
          "name": "",
          "type": "address"
        }
      ],
      "payable": false,
      "stateMutability": "view",
      "type": "function"
    },
    {
      "constant": false,
      "inputs": [],
      "name": "addTestData",
      "outputs": [],
      "payable": false,
      "stateMutability": "nonpayable",
      "type": "function"
    }
  ],
  "bytecode": "0x6080604052336000806101000a81548173ffffffffffffffffffffffffffffffffffffffff021916908373ffffffffffffffffffffffffffffffffffffffff1602179055506117c0806100536000396000f3fe6080604052600436106100ba576000357c0100000000000000000000000000000000000000000000000000000000900463ffffffff1680632b85e9f8146100bf5780633412a15c1461025a57806338cc48311461028957806366a9addc146102e05780636f580a2c1461049b578063744d11aa146105075780638da5cb5b14610573578063a212b454146105ca578063d313ad00146105e1578063dcbbb383146106dd578063f22233ca14610730578063f2fde38b146108c9575b600080fd5b3480156100cb57600080fd5b506100fa600480360360208110156100e257600080fd5b8101908080351515906020019092919050505061091a565b604051808c73ffffffffffffffffffffffffffffffffffffffff1673ffffffffffffffffffffffffffffffffffffffff1681526020018b815260200180602001806020018a815260200189815260200188815260200187815260200186600381111561016257fe5b60ff16815260200185815260200184815260200183810383528c818151815260200191508051906020019080838360005b838110156101ae578082015181840152602081019050610193565b50505050905090810190601f1680156101db5780820380516001836020036101000a031916815260200191505b5083810382528b818151815260200191508051906020019080838360005b838110156102145780820151818401526020810190506101f9565b50505050905090810190601f1680156102415780820380516001836020036101000a031916815260200191505b509d505050505050505050505050505060405180910390f35b34801561026657600080fd5b5061026f6109ab565b604051808215151515815260200191505060405180910390f35b34801561029557600080fd5b5061029e6109b4565b604051808273ffffffffffffffffffffffffffffffffffffffff1673ffffffffffffffffffffffffffffffffffffffff16815260200191505060405180910390f35b3480156102ec57600080fd5b50610485600480360360e081101561030357600080fd5b81019080803573ffffffffffffffffffffffffffffffffffffffff1690602001909291908035906020019064010000000081111561034057600080fd5b82018360208201111561035257600080fd5b8035906020019184600183028401116401000000008311171561037457600080fd5b91908080601f016020809104026020016040519081016040528093929190818152602001838380828437600081840152601f19601f820116905080830192505050505050509192919290803590602001906401000000008111156103d757600080fd5b8201836020820111156103e957600080fd5b8035906020019184600183028401116401000000008311171561040b57600080fd5b91908080601f016020809104026020016040519081016040528093929190818152602001838380828437600081840152601f19601f820116905080830192505050505050509192919290803590602001909291908035906020019092919080359060200190929190803590602001909291905050506109bc565b6040518082815260200191505060405180910390f35b3480156104a757600080fd5b506104b0610ce8565b6040518080602001828103825283818151815260200191508051906020019060200280838360005b838110156104f35780820151818401526020810190506104d8565b505050509050019250505060405180910390f35b34801561051357600080fd5b5061051c610e6a565b6040518080602001828103825283818151815260200191508051906020019060200280838360005b8381101561055f578082015181840152602081019050610544565b505050509050019250505060405180910390f35b34801561057f57600080fd5b50610588610f29565b604051808273ffffffffffffffffffffffffffffffffffffffff1673ffffffffffffffffffffffffffffffffffffffff16815260200191505060405180910390f35b3480156105d657600080fd5b506105df610f4e565b005b3480156105ed57600080fd5b5061061a6004803603602081101561060457600080fd5b8101908080359060200190929190505050611014565b604051808673ffffffffffffffffffffffffffffffffffffffff1673ffffffffffffffffffffffffffffffffffffffff16815260200185815260200180602001848152602001838152602001828103825285818151815260200191508051906020019080838360005b8381101561069e578082015181840152602081019050610683565b50505050905090810190601f1680156106cb5780820380516001836020036101000a031916815260200191505b50965050505050505060405180910390f35b3480156106e957600080fd5b506107166004803603602081101561070057600080fd5b81019080803590602001909291905050506111d6565b604051808215151515815260200191505060405180910390f35b34801561073c57600080fd5b506107696004803603602081101561075357600080fd5b8101908080359060200190929190505050611213565b604051808c73ffffffffffffffffffffffffffffffffffffffff1673ffffffffffffffffffffffffffffffffffffffff1681526020018b815260200180602001806020018a81526020018981526020018881526020018781526020018660038111156107d157fe5b60ff16815260200185815260200184815260200183810383528c818151815260200191508051906020019080838360005b8381101561081d578082015181840152602081019050610802565b50505050905090810190601f16801561084a5780820380516001836020036101000a031916815260200191505b5083810382528b818151815260200191508051906020019080838360005b83811015610883578082015181840152602081019050610868565b50505050905090810190601f1680156108b05780820380516001836020036101000a031916815260200191505b509d505050505050505050505050505060405180910390f35b3480156108d557600080fd5b50610918600480360360208110156108ec57600080fd5b81019080803573ffffffffffffffffffffffffffffffffffffffff1690602001909291905050506114a9565b005b6000806060806000806000806000806000806000600102905060608d1561094a57610943610ce8565b9050610955565b610952610e6a565b90505b60008151111561097b5780600081518110151561096e57fe5b9060200190602002015191505b61098482611213565b9c509c509c509c509c509c509c509c509c509c509c50505091939597999b90929496989a50565b60006001905090565b600030905090565b60008086838a6040516020018084805190602001908083835b6020831015156109fa57805182526020820191506020810190506020830392506109d5565b6001836020036101000a0380198251168184511680821785525050505050509050018381526020018273ffffffffffffffffffffffffffffffffffffffff1673ffffffffffffffffffffffffffffffffffffffff166c0100000000000000000000000002815260140193505050506040516020818303038152906040528051906020012090506000606e9050610a8f826111d6565b151515610b04576040517f08c379a00000000000000000000000000000000000000000000000000000000081526004018080602001828103825260128152602001807f646f657320657869737420616c7265616479000000000000000000000000000081525060200191505060405180910390fd5b600060016002610160604051908101604052808e73ffffffffffffffffffffffffffffffffffffffff1681526020018681526020018d81526020018c81526020018b81526020018a815260200189815260200188815260200160006003811115610b6a57fe5b81526020018581526020017fffffffffffffffffffffffffffffffffffffffffffffffffffffffffffffff9c8152509080600181540180825580915050906001820390600052602060002090600b02016000909192909190915060008201518160000160006101000a81548173ffffffffffffffffffffffffffffffffffffffff021916908373ffffffffffffffffffffffffffffffffffffffff160217905550602082015181600101556040820151816002019080519060200190610c319291906116ef565b506060820151816003019080519060200190610c4e9291906116ef565b506080820151816004015560a0820151816005015560c0820151816006015560e082015181600701556101008201518160080160006101000a81548160ff02191690836003811115610c9c57fe5b0217905550610120820151816009015561014082015181600a01555050039050600181016001600085815260200190815260200160002081905550829350505050979650505050505050565b6060600080905060008090505b600280549050811015610d645760006003811115610d0f57fe5b600282815481101515610d1e57fe5b90600052602060002090600b020160080160009054906101000a900460ff166003811115610d4857fe5b1415610d575781806001019250505b8080600101915050610cf5565b50606081604051908082528060200260200182016040528015610d965781602001602082028038833980820191505090505b5090506000821115610e62576000809050600060028054905090505b6000811115610e5f5760006003811115610dc857fe5b600260018303815481101515610dda57fe5b90600052602060002090600b020160080160009054906101000a900460ff166003811115610e0457fe5b1415610e5157600260018203815481101515610e1c57fe5b90600052602060002090600b0201600101548383806001019450815181101515610e4257fe5b90602001906020020181815250505b808060019003915050610db2565b50505b809250505090565b606080600280549050604051908082528060200260200182016040528015610ea15781602001602082028038833980820191505090505b50905060006002805490501115610f22576000809050600060028054905090505b6000811115610f1f57600260018203815481101515610edd57fe5b90600052602060002090600b0201600101548383806001019450815181101515610f0357fe5b9060200190602002018181525050808060019003915050610ec2565b50505b8091505090565b6000809054906101000a900473ffffffffffffffffffffffffffffffffffffffff1681565b6000809054906101000a900473ffffffffffffffffffffffffffffffffffffffff1673ffffffffffffffffffffffffffffffffffffffff163373ffffffffffffffffffffffffffffffffffffffff16141515611012576040517f08c379a000000000000000000000000000000000000000000000000000000000815260040180806020018281038252601d8152602001807f796f75277265206e6f7420746865206f776e65722c20676f206177617900000081525060200191505060405180910390fd5b565b6000806060600080611025866111d6565b1515611099576040517f08c379a000000000000000000000000000000000000000000000000000000000815260040180806020018281038252600e8152602001807f646f6573206e6f7420657869737400000000000000000000000000000000000081525060200191505060405180910390fd5b60006110a4876116d0565b905060006002828154811015156110b757fe5b90600052602060002090600b0201905060018160080160006101000a81548160ff021916908360038111156110e857fe5b02179055508060000160009054906101000a900473ffffffffffffffffffffffffffffffffffffffff1681600101548260030183600501548460070154828054600181600116156101000203166002900480601f0160208091040260200160405190810160405280929190818152602001828054600181600116156101000203166002900480156111ba5780601f1061118f576101008083540402835291602001916111ba565b820191906000526020600020905b81548152906001019060200180831161119d57829003601f168201915b5050505050925096509650965096509650505091939590929450565b60008060028054905014156111ee576000905061120e565b600060016000848152602001908152602001600020549050600081119150505b919050565b600080606080600080600080600080600061122d8c6111d6565b15611411576000600261123f8e6116d0565b81548110151561124b57fe5b90600052602060002090600b020190508060000160009054906101000a900473ffffffffffffffffffffffffffffffffffffffff168160010154826002018360030184600401548560050154866006015487600701548860080160009054906101000a900460ff1689600901548a600a0154888054600181600116156101000203166002900480601f0160208091040260200160405190810160405280929190818152602001828054600181600116156101000203166002900480156113525780601f1061132757610100808354040283529160200191611352565b820191906000526020600020905b81548152906001019060200180831161133557829003601f168201915b50505050509850878054600181600116156101000203166002900480601f0160208091040260200160405190810160405280929190818152602001828054600181600116156101000203166002900480156113ee5780601f106113c3576101008083540402835291602001916113ee565b820191906000526020600020905b8154815290600101906020018083116113d157829003601f168201915b505050505097509b509b509b509b509b509b509b509b509b509b509b505061149a565b60008c6000806000806000807fffffffffffffffffffffffffffffffffffffffffffffffffffffffffffffffff8898506020604051908101604052806000815250969594939291906020604051908101604052806000815250969594939291908696508595508494508393508191508090509a509a509a509a509a509a509a509a509a509a509a505b91939597999b90929496989a50565b6000809054906101000a900473ffffffffffffffffffffffffffffffffffffffff1673ffffffffffffffffffffffffffffffffffffffff163373ffffffffffffffffffffffffffffffffffffffff1614151561156d576040517f08c379a000000000000000000000000000000000000000000000000000000000815260040180806020018281038252601d8152602001807f796f75277265206e6f7420746865206f776e65722c20676f206177617900000081525060200191505060405180910390fd5b600073ffffffffffffffffffffffffffffffffffffffff168173ffffffffffffffffffffffffffffffffffffffff1614151515611612576040517f08c379a000000000000000000000000000000000000000000000000000000000815260040180806020018281038252601d8152602001807f796f75277265206e6f7420746865206f776e65722c20676f206177617900000081525060200191505060405180910390fd5b8073ffffffffffffffffffffffffffffffffffffffff166000809054906101000a900473ffffffffffffffffffffffffffffffffffffffff1673ffffffffffffffffffffffffffffffffffffffff167f8be0079c531659141344cd1fd0a4f28419497f9722a3daafe3b4186f6b6457e060405160405180910390a3806000806101000a81548173ffffffffffffffffffffffffffffffffffffffff021916908373ffffffffffffffffffffffffffffffffffffffff16021790555050565b6000600180600084815260200190815260200160002054039050919050565b828054600181600116156101000203166002900490600052602060002090601f016020900481019282601f1061173057805160ff191683800117855561175e565b8280016001018555821561175e579182015b8281111561175d578251825591602001919060010190611742565b5b50905061176b919061176f565b5090565b61179191905b8082111561178d576000816000905550600101611775565b5090565b9056fea165627a7a72305820f50145b61ff8899046e2e47f084d9a02fe247810d24775dd627043ce70d662fd0029",
  "source": "pragma solidity ^0.5.0;\r\n\r\nimport \"./Ownable.sol\";\r\nimport \"./DateLib.sol\";\r\n\r\n/*\r\nTEST:\r\n- testConnection\r\n- getAddress\r\n- cityBetExists(0)\r\n- cityBetExists(1)\r\n- declareOutcome(0, 2)\r\n- getPendingCityBets()\r\n- getAllCityBets()\r\n- getCityBet(0)\r\n- getMostRecentCityBet(true)\r\n- addTestData()\r\n- cityBetExists(0)\r\n- cityBetExists(1)\r\n- declareOutcome(0, 2)\r\n- getPendingCityBets()\r\n- getAllCityBets()\r\n- getCityBet(0)\r\n- getMostRecentCityBet(true)\r\n- getMostRecentCityBet(false)\r\n- getCityBet(0x...)\r\n- declareOutcome(0x..., 2)\r\n- getMostRecentCityBet(true)\r\n- getMostRecentCityBet(false)\r\n- getCityBet(0x...)\r\n- add duplicate CityBet\r\n*/\r\n\r\n// http://api.openweathermap.org/data/2.5/forecast?q=Rotterdam,nl&units=metric&APPID=55e3d06cfe25b54ec349eae880b98d57\r\n// voor oproepen 5 dagen weersvoorspelling data voor Rotterdam\r\n// http://api.openweathermap.org/data/2.5/weather?q=Rotterdam,nl&units=metric&APPID=55e3d06cfe25b54ec349eae880b98d57\r\n// voor huidige weer van een bepaalde stad, in dit geval voor Rotterdam\r\n\r\ncontract WeatherOracle is Ownable {\r\n  mapping(bytes32 => uint) cityIdToIndex;\r\n    CityBet[] citybets;\r\n\r\n     using DateLib for DateLib.DateTime;\r\n\r\n    //defines a CityBet along with its outcome\r\n    struct CityBet {\r\n        address userId;\r\n        bytes32 betId; //id van de bet\r\n        string city_id; //id van city\r\n        string name;  // naam van de stad\r\n        uint inzet;\r\n        uint guess;\r\n        uint made_on;  // datum wanneer de bet is gemaakt\r\n        uint weather_date; //\r\n        BetOutcome outcome; // outcome van de weddenschap\r\n        uint quotering;\r\n       // WeatherData weather;\r\n        int winning_degree; // Welke temperatuur het is geworden\r\n    }\r\n\r\n    // struct WeatherData {\r\n    //   int8 humidity;  /// @param humidity is how moist the air is..\r\n    //   int8 cloudPercentage; /// @param cloudPercentage is how much cloudiness there is 100 is max, 0 is min\r\n    //   int8 spanIndex; ///  @param spanIndex is how long in advance the bet is made before the bet finishes.\r\n    // }\r\n\r\n    enum BetOutcome {\r\n        Pending,    //day has not come yet to decision\r\n        Decided,\r\n        Won,\r\n        Lost     //index of participant who is the winning_degree\r\n    }\r\n\r\n    /// @notice returns the array index of the CityBet with the given id\r\n    /// @dev if the CityBet id is invalid, then the return value will be incorrect and may cause error; you must call cityBetExists(_betId) first!\r\n    /// @param _betId the CityBet id to get\r\n    /// @return an array index\r\n    function _getCityBetIndex(bytes32 _betId) private view returns (uint) {\r\n        return cityIdToIndex[_betId]-1;\r\n    }\r\n    /// @notice determines whether a weather forecast exists with the given id\r\n    /// @param _betId the city id to test\r\n    /// @return true if CityBet exists and id is valid\r\n    function cityBetExists(bytes32 _betId) public view returns (bool) {\r\n        if (citybets.length == 0)\r\n            return false;\r\n        uint index = cityIdToIndex[_betId];\r\n        return (index > 0);\r\n    }\r\n    /// @notice puts a new pending CityBet into the blockchain\r\n    /// @param _cityName descriptive name for the CityBet (e.g. Pac vs. Mayweather 2016)\r\n    /// @param _weather_date weather_date set for the CityBet\r\n    /// @return the unique id of the newly created CityBet\r\n        function addCityBet(address sender, string memory _cityId, string memory _cityName, uint _inzet,\r\n        uint _guess, uint _made_on, uint _weather_date) public returns (bytes32){\r\n\r\n        //hash the crucial info to get a unique id\r\n        bytes32 id = keccak256(abi.encodePacked(_cityName, _weather_date, sender));\r\n        uint quotering = 110; // test\r\n\r\n        //require that the CityBet be unique (not already added)\r\n        require(!cityBetExists(id), \"does exist already\");\r\n\r\n        uint newIndex = citybets.push(CityBet(sender, id, _cityId, _cityName, _inzet, _guess, _made_on, _weather_date,\r\n        BetOutcome.Pending, quotering, -100))-1;\r\n        cityIdToIndex[id] = newIndex+1;\r\n\r\n        //return the unique id of the new CityBet\r\n        return id;\r\n    }\r\n\r\n    /// @notice sets the outcome of a predefined CityBet, permanently on the blockchain\r\n    /// @param _betId unique id of the CityBet to modify\r\n    // / @param _outcome outcome of the CityBet\r\n    function declareOutcome(bytes32 _betId) public returns (\r\n        address userId,\r\n        bytes32 betId,//id van de bet\r\n        string memory name,  // naam van de stad\r\n        uint guess,\r\n        uint weather_date //\r\n    ) {\r\n\r\n        //require that it exists\r\n        require(cityBetExists(_betId), \"does not exist\");\r\n\r\n        //get the CityBet\r\n        uint index = _getCityBetIndex(_betId);\r\n        CityBet storage theCityBet = citybets[index];\r\n\r\n    //    if (_outcome == BetOutcome.Decided)\r\n         //   require(_winning_degree >= 0 && theMatch.participantCount > uint8(_winning_degree), \"invalid winning_degree\");\r\n\r\n        //set the outcome\r\n        theCityBet.outcome = BetOutcome.Decided;\r\n        //set the winning_degree (if there is one)\r\n        //if (_outcome == BetOutcome.Decided) theCityBet.winning_degree = _winning_degree;\r\n\r\n         return (theCityBet.userId, theCityBet.betId, theCityBet.name, theCityBet.guess, theCityBet.weather_date);\r\n    }\r\n\r\n    /// @notice gets the unique ids of all pending citybets, in reverse chronological order\r\n    /// @return an array of unique CityBet ids\r\n    function getPendingCityBets() public view returns (bytes32[] memory) {\r\n        uint count = 0;\r\n\r\n        //get count of pending citybets\r\n        for (uint i = 0; i < citybets.length; i++) {\r\n            if (citybets[i].outcome == BetOutcome.Pending)\r\n                count++;\r\n        }\r\n\r\n        //collect up all the pending citybets\r\n        bytes32[] memory output = new bytes32[](count);\r\n\r\n        if (count > 0) {\r\n            uint index = 0;\r\n            for (uint n = citybets.length; n > 0; n--) {\r\n                if (citybets[n-1].outcome == BetOutcome.Pending)\r\n                    output[index++] = citybets[n-1].betId;\r\n            }\r\n        }\r\n\r\n        return output;\r\n    }\r\n\r\n    /// @notice gets the unique ids of citybets, pending and decided, in reverse chronological order\r\n    /// @return an array of unique CityBet ids\r\n    function getAllCityBets() public view returns (bytes32[] memory) {\r\n        bytes32[] memory output = new bytes32[](citybets.length);\r\n\r\n        //get all ids\r\n        if (citybets.length > 0) {\r\n            uint index = 0;\r\n            for (uint n = citybets.length; n > 0; n--) {\r\n                output[index++] = citybets[n-1].betId;\r\n            }\r\n        }\r\n        return output;\r\n    }\r\n\r\n    /// @notice gets the specified weather\r\n    /// @param _betId the unique id of the desired weather\r\n    /// @return CityBet data of the specified weather\r\n    function getCityBet(bytes32 _betId) public view returns (\r\n        address userId,\r\n        bytes32 betId,//id van de bet\r\n        string memory city_id, //id van city\r\n        string memory name,  // naam van de stad\r\n        uint inzet,\r\n        uint guess,\r\n        uint made_on,  // datum wanneer de bet is gemaakt\r\n        uint weather_date, //\r\n         BetOutcome outcome, // outcome van de weddenschap\r\n        uint quotering,\r\n       // WeatherData weather;\r\n        int winning_degree // Welke temperatuur het is geworden\r\n     ) {\r\n        //get the weather\r\n        if (cityBetExists(_betId)) {\r\n            CityBet storage theCity = citybets[_getCityBetIndex(_betId)];\r\n            return (theCity.userId,theCity.betId, theCity.city_id, theCity.name, theCity.inzet, theCity.guess, theCity.made_on, theCity.weather_date,\r\n            theCity.outcome, theCity.quotering, theCity.winning_degree);\r\n        }\r\n        else {\r\n            return (address(0x0), _betId, \"\", \"\", 0, 0, 0, 0, BetOutcome.Pending, 0, -1);\r\n        }\r\n    }\r\n\r\n    /// @notice gets the most recent CityBet or pending CityBet\r\n    /// @param _pending if true, will return only the most recent pending CityBet; otherwise, returns the most recent CityBet either pending or completed\r\n    /// @return CityBet data\r\n    function getMostRecentCityBet(bool _pending) public view returns (\r\n        address userId,\r\n        bytes32 betId,//betId van de bet\r\n        string memory city_id, //id van city\r\n        string memory name,  // naam van de stad\r\n        uint inzet,\r\n        uint guess,\r\n        uint made_on,  // datum wanneer de bet is gemaakt\r\n        uint weather_date, //\r\n         BetOutcome outcome, // outcome van de weddenschap\r\n        uint quotering,\r\n       // WeatherData weather;\r\n        int winning_degree // Welke temperatuur het is geworden\r\n        ) {\r\n\r\n        bytes32 id = 0;\r\n        bytes32[] memory ids;\r\n\r\n        if (_pending) {\r\n            ids = getPendingCityBets();\r\n        } else {\r\n            ids = getAllCityBets();\r\n        }\r\n        if (ids.length > 0) {\r\n            id = ids[0];\r\n        }\r\n        //by default, return a null CityBet\r\n        return getCityBet(id);\r\n    }\r\n    function testConnection() public pure returns (bool){\r\n\treturn true;\r\n    }\r\n        /// @notice gets the address of this contract\r\n    /// @return address\r\n    function getAddress() public view returns (address) {\r\n        return address(this);\r\n    }\r\n\r\n    /// @notice for testing  string memory _cityId, string memory _cityName, uint _weather_date\r\n    function addTestData() external onlyOwner {\r\n        // addCityBet(434,\"2471883\", \"Rotterdam\", 0, 0, 0, DateLib.DateTime(2018, 8, 13, 0, 0, 0, 0, 0).toUnixTimestamp());\r\n        // addCityBet(\"2329929\", \"Amsterdam\", 0, 0, 0, DateLib.DateTime(2018, 8, 15, 0, 0, 0, 0, 0).toUnixTimestamp());\r\n        // addCityBet(\"4564645\", \"Utrecht\", 0, 0, 0, DateLib.DateTime(2018, 9, 3, 0, 0, 0, 0, 0).toUnixTimestamp());\r\n        // addCityBet(\"3452554\", \"Groningen\", 0, 0, 0,  DateLib.DateTime(2018, 9, 3, 0, 0, 0, 0, 0).toUnixTimestamp());\r\n        // addCityBet(\"2342555\", \"Maastricht\",0, 0, 0,  DateLib.DateTime(2018, 9, 21, 0, 0, 0, 0, 0).toUnixTimestamp());\r\n        // addCityBet(\"4564654\", \"Haarlem\", 0, 0, 0, DateLib.DateTime(2018, 9, 29, 0, 0, 0, 0, 0).toUnixTimestamp());\r\n        // addCityBet(\"3655463\", \"Overschie\",0, 0, 0,  DateLib.DateTime(2018, 10, 10, 0, 0, 0, 0, 0).toUnixTimestamp());\r\n        // addCityBet(\"3454344\", \"Schiedam\", 0, 0, 0, DateLib.DateTime(2018, 11, 11, 0, 0, 0, 0, 0).toUnixTimestamp());\r\n        // addCityBet(\"3248228\", \"Spangen\", 0, 0, 0, DateLib.DateTime(2018, 11, 12, 0, 0, 0, 0, 0).toUnixTimestamp());\r\n    }\r\n}\r\n",
  "sourcePath": "C:/Users/Nofit/Documents/GitHub/react-truffle/oracle/contracts/WeatherOracle.sol",
  "compiler": {
    "name": "solc",
    "version": "0.5.0+commit.1d4f565a.Emscripten.clang"
  },
  "schemaVersion": "3.0.9",
  "updatedAt": "2019-06-06T18:10:02.362Z",
  "devdoc": {
    "methods": {
      "addCityBet(address,string,string,uint256,uint256,uint256,uint256)": {
        "return": "the unique id of the newly created CityBet"
      },
      "cityBetExists(bytes32)": {
        "return": "true if CityBet exists and id is valid"
      },
      "declareOutcome(bytes32)": {
        "params": {
          "_betId": "unique id of the CityBet to modify"
        }
      },
      "getAddress()": {
        "return": "address"
      },
      "getAllCityBets()": {
        "return": "an array of unique CityBet ids"
      },
      "getCityBet(bytes32)": {
        "return": "CityBet data of the specified weather"
      },
      "getMostRecentCityBet(bool)": {
        "return": "CityBet data"
      },
      "getPendingCityBets()": {
        "return": "an array of unique CityBet ids"
      },
      "transferOwnership(address)": {
        "details": "Allows the current owner to transfer control of the contract to a newOwner.\r",
        "params": {
          "newOwner": "The address to transfer ownership to.\r"
        }
      }
    }
  },
  "userdoc": {
    "methods": {
      "addTestData()": {
        "notice": "for testing  string memory _cityId, string memory _cityName, uint _weather_date"
      }
    }
  }
}