{
  "contractName": "WeatherOracle",
  "abi": [
    {
      "constant": true,
      "inputs": [],
      "name": "ETHUSD",
      "outputs": [
        {
          "name": "",
          "type": "string"
        }
      ],
      "payable": false,
      "stateMutability": "view",
      "type": "function"
    },
    {
      "constant": true,
      "inputs": [],
      "name": "owner",
      "outputs": [
        {
          "name": "",
          "type": "address"
        }
      ],
      "payable": false,
      "stateMutability": "view",
      "type": "function"
    },
    {
      "constant": false,
      "inputs": [
        {
          "name": "newOwner",
          "type": "address"
        }
      ],
      "name": "transferOwnership",
      "outputs": [],
      "payable": false,
      "stateMutability": "nonpayable",
      "type": "function"
    },
    {
      "inputs": [],
      "payable": true,
      "stateMutability": "payable",
      "type": "constructor"
    },
    {
      "anonymous": false,
      "inputs": [
        {
          "indexed": false,
          "name": "nextStep",
          "type": "string"
        }
      ],
      "name": "LogConstructorInitiated",
      "type": "event"
    },
    {
      "anonymous": false,
      "inputs": [
        {
          "indexed": false,
          "name": "price",
          "type": "string"
        }
      ],
      "name": "LogUpdated",
      "type": "event"
    },
    {
      "anonymous": false,
      "inputs": [
        {
          "indexed": false,
          "name": "description",
          "type": "string"
        }
      ],
      "name": "LogNewOraclizeQuery",
      "type": "event"
    },
    {
      "anonymous": false,
      "inputs": [
        {
          "indexed": true,
          "name": "previousOwner",
          "type": "address"
        },
        {
          "indexed": true,
          "name": "newOwner",
          "type": "address"
        }
      ],
      "name": "OwnershipTransferred",
      "type": "event"
    },
    {
      "constant": true,
      "inputs": [
        {
          "name": "_betId",
          "type": "bytes32"
        }
      ],
      "name": "cityBetExists",
      "outputs": [
        {
          "name": "",
          "type": "bool"
        }
      ],
      "payable": false,
      "stateMutability": "view",
      "type": "function"
    },
    {
      "constant": false,
      "inputs": [
        {
          "name": "sender",
          "type": "address"
        },
        {
          "name": "_cityId",
          "type": "string"
        },
        {
          "name": "_cityName",
          "type": "string"
        },
        {
          "name": "_inzet",
          "type": "uint256"
        },
        {
          "name": "_guess",
          "type": "uint256"
        },
        {
          "name": "_made_on",
          "type": "uint256"
        },
        {
          "name": "_weather_date",
          "type": "uint256"
        }
      ],
      "name": "addCityBet",
      "outputs": [
        {
          "name": "",
          "type": "bytes32"
        }
      ],
      "payable": false,
      "stateMutability": "nonpayable",
      "type": "function"
    },
    {
      "constant": false,
      "inputs": [
        {
          "name": "_betId",
          "type": "bytes32"
        }
      ],
      "name": "declareOutcome",
      "outputs": [
        {
          "name": "userId",
          "type": "address"
        },
        {
          "name": "betId",
          "type": "bytes32"
        },
        {
          "name": "name",
          "type": "string"
        },
        {
          "name": "guess",
          "type": "uint256"
        },
        {
          "name": "weather_date",
          "type": "uint256"
        }
      ],
      "payable": false,
      "stateMutability": "nonpayable",
      "type": "function"
    },
    {
      "constant": true,
      "inputs": [],
      "name": "getPendingCityBets",
      "outputs": [
        {
          "name": "",
          "type": "bytes32[]"
        }
      ],
      "payable": false,
      "stateMutability": "view",
      "type": "function"
    },
    {
      "constant": true,
      "inputs": [],
      "name": "getAllCityBets",
      "outputs": [
        {
          "name": "",
          "type": "bytes32[]"
        }
      ],
      "payable": false,
      "stateMutability": "view",
      "type": "function"
    },
    {
      "constant": true,
      "inputs": [
        {
          "name": "_betId",
          "type": "bytes32"
        }
      ],
      "name": "getCityBet",
      "outputs": [
        {
          "name": "userId",
          "type": "address"
        },
        {
          "name": "betId",
          "type": "bytes32"
        },
        {
          "name": "city_id",
          "type": "string"
        },
        {
          "name": "name",
          "type": "string"
        },
        {
          "name": "inzet",
          "type": "uint256"
        },
        {
          "name": "guess",
          "type": "uint256"
        },
        {
          "name": "made_on",
          "type": "uint256"
        },
        {
          "name": "weather_date",
          "type": "uint256"
        },
        {
          "name": "outcome",
          "type": "uint8"
        },
        {
          "name": "quotering",
          "type": "uint256"
        },
        {
          "name": "winning_degree",
          "type": "int256"
        }
      ],
      "payable": false,
      "stateMutability": "view",
      "type": "function"
    },
    {
      "constant": true,
      "inputs": [
        {
          "name": "_pending",
          "type": "bool"
        }
      ],
      "name": "getMostRecentCityBet",
      "outputs": [
        {
          "name": "userId",
          "type": "address"
        },
        {
          "name": "betId",
          "type": "bytes32"
        },
        {
          "name": "city_id",
          "type": "string"
        },
        {
          "name": "name",
          "type": "string"
        },
        {
          "name": "inzet",
          "type": "uint256"
        },
        {
          "name": "guess",
          "type": "uint256"
        },
        {
          "name": "made_on",
          "type": "uint256"
        },
        {
          "name": "weather_date",
          "type": "uint256"
        },
        {
          "name": "outcome",
          "type": "uint8"
        },
        {
          "name": "quotering",
          "type": "uint256"
        },
        {
          "name": "winning_degree",
          "type": "int256"
        }
      ],
      "payable": false,
      "stateMutability": "view",
      "type": "function"
    },
    {
      "constant": true,
      "inputs": [],
      "name": "testConnection",
      "outputs": [
        {
          "name": "",
          "type": "bool"
        }
      ],
      "payable": false,
      "stateMutability": "pure",
      "type": "function"
    },
    {
      "constant": true,
      "inputs": [],
      "name": "getAddress",
      "outputs": [
        {
          "name": "",
          "type": "address"
        }
      ],
      "payable": false,
      "stateMutability": "view",
      "type": "function"
    },
    {
      "constant": false,
      "inputs": [],
      "name": "addTestData",
      "outputs": [],
      "payable": false,
      "stateMutability": "nonpayable",
      "type": "function"
    }
  ],
  "bytecode": "0x6080604052336000806101000a81548173ffffffffffffffffffffffffffffffffffffffff021916908373ffffffffffffffffffffffffffffffffffffffff1602179055507f11a3fca63f87bd67d7f9f72b744acc8be2193705e7a734ac3a773d35d259e87b60405180806020018281038252604b8152602001806118c4604b913960600191505060405180910390a16118268061009e6000396000f3fe608060405234801561001057600080fd5b50600436106100cf5760003560e01c8063744d11aa1161008c578063d313ad0011610066578063d313ad0014610611578063dcbbb38314610700578063f22233ca14610746578063f2fde38b146108d2576100cf565b8063744d11aa1461055e5780638da5cb5b146105bd578063a212b45414610607576100cf565b80632b85e9f8146100d45780633412a15c1461026257806338cc48311461028457806366a9addc146102ce5780636f580a2c1461047c57806373db0844146104db575b600080fd5b610102600480360360208110156100ea57600080fd5b81019080803515159060200190929190505050610916565b604051808c73ffffffffffffffffffffffffffffffffffffffff1673ffffffffffffffffffffffffffffffffffffffff1681526020018b815260200180602001806020018a815260200189815260200188815260200187815260200186600381111561016a57fe5b60ff16815260200185815260200184815260200183810383528c818151815260200191508051906020019080838360005b838110156101b657808201518184015260208101905061019b565b50505050905090810190601f1680156101e35780820380516001836020036101000a031916815260200191505b5083810382528b818151815260200191508051906020019080838360005b8381101561021c578082015181840152602081019050610201565b50505050905090810190601f1680156102495780820380516001836020036101000a031916815260200191505b509d505050505050505050505050505060405180910390f35b61026a6109a2565b604051808215151515815260200191505060405180910390f35b61028c6109ab565b604051808273ffffffffffffffffffffffffffffffffffffffff1673ffffffffffffffffffffffffffffffffffffffff16815260200191505060405180910390f35b610466600480360360e08110156102e457600080fd5b81019080803573ffffffffffffffffffffffffffffffffffffffff1690602001909291908035906020019064010000000081111561032157600080fd5b82018360208201111561033357600080fd5b8035906020019184600183028401116401000000008311171561035557600080fd5b91908080601f016020809104026020016040519081016040528093929190818152602001838380828437600081840152601f19601f820116905080830192505050505050509192919290803590602001906401000000008111156103b857600080fd5b8201836020820111156103ca57600080fd5b803590602001918460018302840111640100000000831117156103ec57600080fd5b91908080601f016020809104026020016040519081016040528093929190818152602001838380828437600081840152601f19601f820116905080830192505050505050509192919290803590602001909291908035906020019092919080359060200190929190803590602001909291905050506109b3565b6040518082815260200191505060405180910390f35b610484610cce565b6040518080602001828103825283818151815260200191508051906020019060200280838360005b838110156104c75780820151818401526020810190506104ac565b505050509050019250505060405180910390f35b6104e3610e46565b6040518080602001828103825283818151815260200191508051906020019080838360005b83811015610523578082015181840152602081019050610508565b50505050905090810190601f1680156105505780820380516001836020036101000a031916815260200191505b509250505060405180910390f35b610566610ee4565b6040518080602001828103825283818151815260200191508051906020019060200280838360005b838110156105a957808201518184015260208101905061058e565b505050509050019250505060405180910390f35b6105c5610f9d565b604051808273ffffffffffffffffffffffffffffffffffffffff1673ffffffffffffffffffffffffffffffffffffffff16815260200191505060405180910390f35b61060f610fc2565b005b61063d6004803603602081101561062757600080fd5b8101908080359060200190929190505050611086565b604051808673ffffffffffffffffffffffffffffffffffffffff1673ffffffffffffffffffffffffffffffffffffffff16815260200185815260200180602001848152602001838152602001828103825285818151815260200191508051906020019080838360005b838110156106c15780820151818401526020810190506106a6565b50505050905090810190601f1680156106ee5780820380516001836020036101000a031916815260200191505b50965050505050505060405180910390f35b61072c6004803603602081101561071657600080fd5b8101908080359060200190929190505050611244565b604051808215151515815260200191505060405180910390f35b6107726004803603602081101561075c57600080fd5b8101908080359060200190929190505050611281565b604051808c73ffffffffffffffffffffffffffffffffffffffff1673ffffffffffffffffffffffffffffffffffffffff1681526020018b815260200180602001806020018a81526020018981526020018881526020018781526020018660038111156107da57fe5b60ff16815260200185815260200184815260200183810383528c818151815260200191508051906020019080838360005b8381101561082657808201518184015260208101905061080b565b50505050905090810190601f1680156108535780820380516001836020036101000a031916815260200191505b5083810382528b818151815260200191508051906020019080838360005b8381101561088c578082015181840152602081019050610871565b50505050905090810190601f1680156108b95780820380516001836020036101000a031916815260200191505b509d505050505050505050505050505060405180910390f35b610914600480360360208110156108e857600080fd5b81019080803573ffffffffffffffffffffffffffffffffffffffff169060200190929190505050611513565b005b6000806060806000806000806000806000806000801b905060608d156109455761093e610cce565b9050610950565b61094d610ee4565b90505b600081511115610972578060008151811061096757fe5b602002602001015191505b61097b82611281565b9c509c509c509c509c509c509c509c509c509c509c50505091939597999b90929496989a50565b60006001905090565b600030905090565b60008086838a6040516020018084805190602001908083835b602083106109ef57805182526020820191506020810190506020830392506109cc565b6001836020036101000a0380198251168184511680821785525050505050509050018381526020018273ffffffffffffffffffffffffffffffffffffffff1673ffffffffffffffffffffffffffffffffffffffff1660601b815260140193505050506040516020818303038152906040528051906020012090506000606e9050610a7882611244565b15610aeb576040517f08c379a00000000000000000000000000000000000000000000000000000000081526004018080602001828103825260128152602001807f646f657320657869737420616c7265616479000000000000000000000000000081525060200191505060405180910390fd5b6000600160026040518061016001604052808e73ffffffffffffffffffffffffffffffffffffffff1681526020018681526020018d81526020018c81526020018b81526020018a815260200189815260200188815260200160006003811115610b5057fe5b81526020018581526020017fffffffffffffffffffffffffffffffffffffffffffffffffffffffffffffff9c8152509080600181540180825580915050906001820390600052602060002090600b02016000909192909190915060008201518160000160006101000a81548173ffffffffffffffffffffffffffffffffffffffff021916908373ffffffffffffffffffffffffffffffffffffffff160217905550602082015181600101556040820151816002019080519060200190610c17929190611755565b506060820151816003019080519060200190610c34929190611755565b506080820151816004015560a0820151816005015560c0820151816006015560e082015181600701556101008201518160080160006101000a81548160ff02191690836003811115610c8257fe5b0217905550610120820151816009015561014082015181600a01555050039050600181016001600085815260200190815260200160002081905550829350505050979650505050505050565b6060600080905060008090505b600280549050811015610d485760006003811115610cf557fe5b60028281548110610d0257fe5b90600052602060002090600b020160080160009054906101000a900460ff166003811115610d2c57fe5b1415610d3b5781806001019250505b8080600101915050610cdb565b50606081604051908082528060200260200182016040528015610d7a5781602001602082028038833980820191505090505b5090506000821115610e3e576000809050600060028054905090505b6000811115610e3b5760006003811115610dac57fe5b60026001830381548110610dbc57fe5b90600052602060002090600b020160080160009054906101000a900460ff166003811115610de657fe5b1415610e2d5760026001820381548110610dfc57fe5b90600052602060002090600b020160010154838380600101945081518110610e2057fe5b6020026020010181815250505b808060019003915050610d96565b50505b809250505090565b60038054600181600116156101000203166002900480601f016020809104026020016040519081016040528092919081815260200182805460018160011615610100020316600290048015610edc5780601f10610eb157610100808354040283529160200191610edc565b820191906000526020600020905b815481529060010190602001808311610ebf57829003601f168201915b505050505081565b606080600280549050604051908082528060200260200182016040528015610f1b5781602001602082028038833980820191505090505b50905060006002805490501115610f96576000809050600060028054905090505b6000811115610f935760026001820381548110610f5557fe5b90600052602060002090600b020160010154838380600101945081518110610f7957fe5b602002602001018181525050808060019003915050610f3c565b50505b8091505090565b6000809054906101000a900473ffffffffffffffffffffffffffffffffffffffff1681565b6000809054906101000a900473ffffffffffffffffffffffffffffffffffffffff1673ffffffffffffffffffffffffffffffffffffffff163373ffffffffffffffffffffffffffffffffffffffff1614611084576040517f08c379a000000000000000000000000000000000000000000000000000000000815260040180806020018281038252601d8152602001807f796f75277265206e6f7420746865206f776e65722c20676f206177617900000081525060200191505060405180910390fd5b565b600080606060008061109786611244565b611109576040517f08c379a000000000000000000000000000000000000000000000000000000000815260040180806020018281038252600e8152602001807f646f6573206e6f7420657869737400000000000000000000000000000000000081525060200191505060405180910390fd5b600061111487611736565b905060006002828154811061112557fe5b90600052602060002090600b0201905060018160080160006101000a81548160ff0219169083600381111561115657fe5b02179055508060000160009054906101000a900473ffffffffffffffffffffffffffffffffffffffff1681600101548260030183600501548460070154828054600181600116156101000203166002900480601f0160208091040260200160405190810160405280929190818152602001828054600181600116156101000203166002900480156112285780601f106111fd57610100808354040283529160200191611228565b820191906000526020600020905b81548152906001019060200180831161120b57829003601f168201915b5050505050925096509650965096509650505091939590929450565b600080600280549050141561125c576000905061127c565b600060016000848152602001908152602001600020549050600081119150505b919050565b600080606080600080600080600080600061129b8c611244565b1561147d57600060026112ad8e611736565b815481106112b757fe5b90600052602060002090600b020190508060000160009054906101000a900473ffffffffffffffffffffffffffffffffffffffff168160010154826002018360030184600401548560050154866006015487600701548860080160009054906101000a900460ff1689600901548a600a0154888054600181600116156101000203166002900480601f0160208091040260200160405190810160405280929190818152602001828054600181600116156101000203166002900480156113be5780601f10611393576101008083540402835291602001916113be565b820191906000526020600020905b8154815290600101906020018083116113a157829003601f168201915b50505050509850878054600181600116156101000203166002900480601f01602080910402602001604051908101604052809291908181526020018280546001816001161561010002031660029004801561145a5780601f1061142f5761010080835404028352916020019161145a565b820191906000526020600020905b81548152906001019060200180831161143d57829003601f168201915b505050505097509b509b509b509b509b509b509b509b509b509b509b5050611504565b60008c6000806000806000807fffffffffffffffffffffffffffffffffffffffffffffffffffffffffffffffff889850604051806020016040528060008152509695949392919060405180602001604052806000815250969594939291908696508595508494508393508191508090509a509a509a509a509a509a509a509a509a509a509a505b91939597999b90929496989a50565b6000809054906101000a900473ffffffffffffffffffffffffffffffffffffffff1673ffffffffffffffffffffffffffffffffffffffff163373ffffffffffffffffffffffffffffffffffffffff16146115d5576040517f08c379a000000000000000000000000000000000000000000000000000000000815260040180806020018281038252601d8152602001807f796f75277265206e6f7420746865206f776e65722c20676f206177617900000081525060200191505060405180910390fd5b600073ffffffffffffffffffffffffffffffffffffffff168173ffffffffffffffffffffffffffffffffffffffff161415611678576040517f08c379a000000000000000000000000000000000000000000000000000000000815260040180806020018281038252601d8152602001807f796f75277265206e6f7420746865206f776e65722c20676f206177617900000081525060200191505060405180910390fd5b8073ffffffffffffffffffffffffffffffffffffffff166000809054906101000a900473ffffffffffffffffffffffffffffffffffffffff1673ffffffffffffffffffffffffffffffffffffffff167f8be0079c531659141344cd1fd0a4f28419497f9722a3daafe3b4186f6b6457e060405160405180910390a3806000806101000a81548173ffffffffffffffffffffffffffffffffffffffff021916908373ffffffffffffffffffffffffffffffffffffffff16021790555050565b6000600180600084815260200190815260200160002054039050919050565b828054600181600116156101000203166002900490600052602060002090601f016020900481019282601f1061179657805160ff19168380011785556117c4565b828001600101855582156117c4579182015b828111156117c35782518255916020019190600101906117a8565b5b5090506117d191906117d5565b5090565b6117f791905b808211156117f35760008160009055506001016117db565b5090565b9056fea165627a7a72305820b88b942ad6254902aeb56171ae5b41ec354b7e128cb19efa0108b6418fff3a020029436f6e7374727563746f722077617320696e697469617465642e2043616c6c2027757064617465507269636528292720746f2073656e6420746865204f7261636c697a652051756572792e",
  "source": "pragma solidity ^0.5.0;\r\nimport \"./Ownable.sol\";\r\nimport \"./DateLib.sol\";\r\n/*\r\nTEST:\r\n- testConnection\r\n- getAddress\r\n- cityBetExists(0)\r\n- cityBetExists(1)\r\n- declareOutcome(0, 2)\r\n- getPendingCityBets()\r\n- getAllCityBets()\r\n- getCityBet(0)\r\n- getMostRecentCityBet(true)\r\n- addTestData()\r\n- cityBetExists(0)\r\n- cityBetExists(1)\r\n- declareOutcome(0, 2)\r\n- getPendingCityBets()\r\n- getAllCityBets()\r\n- getCityBet(0)\r\n- getMostRecentCityBet(true)\r\n- getMostRecentCityBet(false)\r\n- getCityBet(0x...)\r\n- declareOutcome(0x..., 2)\r\n- getMostRecentCityBet(true)\r\n- getMostRecentCityBet(false)\r\n- getCityBet(0x...)\r\n- add duplicate CityBet\r\n*/\r\n\r\n// http://api.openweathermap.org/data/2.5/forecast?q=Rotterdam,nl&units=metric&APPID=55e3d06cfe25b54ec349eae880b98d57\r\n// voor oproepen 5 dagen weersvoorspelling data voor Rotterdam\r\n// http://api.openweathermap.org/data/2.5/weather?q=Rotterdam,nl&units=metric&APPID=55e3d06cfe25b54ec349eae880b98d57\r\n// voor huidige weer van een bepaalde stad, in dit geval voor Rotterdam\r\n\r\ncontract WeatherOracle is Ownable {\r\n  mapping(bytes32 => uint) cityIdToIndex;\r\n    CityBet[] citybets;\r\n\r\n     using DateLib for DateLib.DateTime;\r\n\r\n    string public ETHUSD;\r\n    event LogConstructorInitiated(string nextStep);\r\n    event LogUpdated(string price);\r\n    event LogNewOraclizeQuery(string description);\r\n\r\n    constructor () public payable {\r\n       emit LogConstructorInitiated(\"Constructor was initiated. Call 'updatePrice()' to send the Oraclize Query.\");\r\n   }\r\n    //defines a CityBet along with its outcome\r\n    struct CityBet {\r\n        address userId;\r\n        bytes32 betId; //id van de bet\r\n        string city_id; //id van city\r\n        string name;  // naam van de stad\r\n        uint inzet;\r\n        uint guess;\r\n        uint made_on;  // datum wanneer de bet is gemaakt\r\n        uint weather_date; //\r\n        BetOutcome outcome; // outcome van de weddenschap\r\n        uint quotering;\r\n       // WeatherData weather;\r\n        int winning_degree; // Welke temperatuur het is geworden\r\n    }\r\n\r\n    // struct WeatherData {\r\n    //   int8 humidity;  /// @param humidity is how moist the air is..\r\n    //   int8 cloudPercentage; /// @param cloudPercentage is how much cloudiness there is 100 is max, 0 is min\r\n    //   int8 spanIndex; ///  @param spanIndex is how long in advance the bet is made before the bet finishes.\r\n    // }\r\n\r\n    enum BetOutcome {\r\n        Pending,    //day has not come yet to decision\r\n        Decided,\r\n        Won,\r\n        Lost     //index of participant who is the winning_degree\r\n    }\r\n//      function __callback(bytes32 myid, string result) public {\r\n//        if (msg.sender != oraclize_cbAddress()) revert(\"revert oracle\");\r\n//        ETHUSD = result;\r\n//        emit LogUpdated(result);\r\n//    }\r\n\r\n    /// @notice returns the array index of the CityBet with the given id\r\n    /// @dev if the CityBet id is invalid, then the return value will be incorrect and may cause error; you must call cityBetExists(_betId) first!\r\n    /// @param _betId the CityBet id to get\r\n    /// @return an array index\r\n    function _getCityBetIndex(bytes32 _betId) private view returns (uint) {\r\n        return cityIdToIndex[_betId]-1;\r\n    }\r\n    /// @notice determines whether a weather forecast exists with the given id\r\n    /// @param _betId the city id to test\r\n    /// @return true if CityBet exists and id is valid\r\n    function cityBetExists(bytes32 _betId) public view returns (bool) {\r\n        if (citybets.length == 0)\r\n            return false;\r\n        uint index = cityIdToIndex[_betId];\r\n        return (index > 0);\r\n    }\r\n    /// @notice puts a new pending CityBet into the blockchain\r\n    /// @param _cityName descriptive name for the CityBet (e.g. Pac vs. Mayweather 2016)\r\n    /// @param _weather_date weather_date set for the CityBet\r\n    /// @return the unique id of the newly created CityBet\r\n        function addCityBet(address sender, string memory _cityId, string memory _cityName, uint _inzet,\r\n        uint _guess, uint _made_on, uint _weather_date) public returns (bytes32){\r\n\r\n        //hash the crucial info to get a unique id\r\n        bytes32 id = keccak256(abi.encodePacked(_cityName, _weather_date, sender));\r\n        uint quotering = 110; // test\r\n\r\n        //require that the CityBet be unique (not already added)\r\n        require(!cityBetExists(id), \"does exist already\");\r\n\r\n        uint newIndex = citybets.push(CityBet(sender, id, _cityId, _cityName, _inzet, _guess, _made_on, _weather_date,\r\n        BetOutcome.Pending, quotering, -100))-1;\r\n        cityIdToIndex[id] = newIndex+1;\r\n\r\n        //return the unique id of the new CityBet\r\n        return id;\r\n    }\r\n\r\n    /// @notice sets the outcome of a predefined CityBet, permanently on the blockchain\r\n    /// @param _betId unique id of the CityBet to modify\r\n    // / @param _outcome outcome of the CityBet\r\n    function declareOutcome(bytes32 _betId) public returns (\r\n        address userId,\r\n        bytes32 betId,//id van de bet\r\n        string memory name,  // naam van de stad\r\n        uint guess,\r\n        uint weather_date //\r\n    ) {\r\n\r\n        //require that it exists\r\n        require(cityBetExists(_betId), \"does not exist\");\r\n\r\n        //get the CityBet\r\n        uint index = _getCityBetIndex(_betId);\r\n        CityBet storage theCityBet = citybets[index];\r\n\r\n    //    if (_outcome == BetOutcome.Decided)\r\n         //   require(_winning_degree >= 0 && theMatch.participantCount > uint8(_winning_degree), \"invalid winning_degree\");\r\n\r\n        //set the outcome\r\n        theCityBet.outcome = BetOutcome.Decided;\r\n        //set the winning_degree (if there is one)\r\n        //if (_outcome == BetOutcome.Decided) theCityBet.winning_degree = _winning_degree;\r\n\r\n         return (theCityBet.userId, theCityBet.betId, theCityBet.name, theCityBet.guess, theCityBet.weather_date);\r\n    }\r\n\r\n    /// @notice gets the unique ids of all pending citybets, in reverse chronological order\r\n    /// @return an array of unique CityBet ids\r\n    function getPendingCityBets() public view returns (bytes32[] memory) {\r\n        uint count = 0;\r\n\r\n        //get count of pending citybets\r\n        for (uint i = 0; i < citybets.length; i++) {\r\n            if (citybets[i].outcome == BetOutcome.Pending)\r\n                count++;\r\n        }\r\n\r\n        //collect up all the pending citybets\r\n        bytes32[] memory output = new bytes32[](count);\r\n\r\n        if (count > 0) {\r\n            uint index = 0;\r\n            for (uint n = citybets.length; n > 0; n--) {\r\n                if (citybets[n-1].outcome == BetOutcome.Pending)\r\n                    output[index++] = citybets[n-1].betId;\r\n            }\r\n        }\r\n\r\n        return output;\r\n    }\r\n\r\n    /// @notice gets the unique ids of citybets, pending and decided, in reverse chronological order\r\n    /// @return an array of unique CityBet ids\r\n    function getAllCityBets() public view returns (bytes32[] memory) {\r\n        bytes32[] memory output = new bytes32[](citybets.length);\r\n\r\n        //get all ids\r\n        if (citybets.length > 0) {\r\n            uint index = 0;\r\n            for (uint n = citybets.length; n > 0; n--) {\r\n                output[index++] = citybets[n-1].betId;\r\n            }\r\n        }\r\n        return output;\r\n    }\r\n\r\n    /// @notice gets the specified weather\r\n    /// @param _betId the unique id of the desired weather\r\n    /// @return CityBet data of the specified weather\r\n    function getCityBet(bytes32 _betId) public view returns (\r\n        address userId,\r\n        bytes32 betId,//id van de bet\r\n        string memory city_id, //id van city\r\n        string memory name,  // naam van de stad\r\n        uint inzet,\r\n        uint guess,\r\n        uint made_on,  // datum wanneer de bet is gemaakt\r\n        uint weather_date, //\r\n         BetOutcome outcome, // outcome van de weddenschap\r\n        uint quotering,\r\n       // WeatherData weather;\r\n        int winning_degree // Welke temperatuur het is geworden\r\n     ) {\r\n        //get the weather\r\n        if (cityBetExists(_betId)) {\r\n            CityBet storage theCity = citybets[_getCityBetIndex(_betId)];\r\n            return (theCity.userId,theCity.betId, theCity.city_id, theCity.name, theCity.inzet, theCity.guess, theCity.made_on, theCity.weather_date,\r\n            theCity.outcome, theCity.quotering, theCity.winning_degree);\r\n        }\r\n        else {\r\n            return (address(0x0), _betId, \"\", \"\", 0, 0, 0, 0, BetOutcome.Pending, 0, -1);\r\n        }\r\n    }\r\n\r\n    /// @notice gets the most recent CityBet or pending CityBet\r\n    /// @param _pending if true, will return only the most recent pending CityBet; otherwise, returns the most recent CityBet either pending or completed\r\n    /// @return CityBet data\r\n    function getMostRecentCityBet(bool _pending) public view returns (\r\n        address userId,\r\n        bytes32 betId,//betId van de bet\r\n        string memory city_id, //id van city\r\n        string memory name,  // naam van de stad\r\n        uint inzet,\r\n        uint guess,\r\n        uint made_on,  // datum wanneer de bet is gemaakt\r\n        uint weather_date, //\r\n         BetOutcome outcome, // outcome van de weddenschap\r\n        uint quotering,\r\n       // WeatherData weather;\r\n        int winning_degree // Welke temperatuur het is geworden\r\n        ) {\r\n\r\n        bytes32 id = 0;\r\n        bytes32[] memory ids;\r\n\r\n        if (_pending) {\r\n            ids = getPendingCityBets();\r\n        } else {\r\n            ids = getAllCityBets();\r\n        }\r\n        if (ids.length > 0) {\r\n            id = ids[0];\r\n        }\r\n        //by default, return a null CityBet\r\n        return getCityBet(id);\r\n    }\r\n    function testConnection() public pure returns (bool){\r\n\treturn true;\r\n    }\r\n        /// @notice gets the address of this contract\r\n    /// @return address\r\n    function getAddress() public view returns (address) {\r\n        return address(this);\r\n    }\r\n\r\n    /// @notice for testing  string memory _cityId, string memory _cityName, uint _weather_date\r\n    function addTestData() external onlyOwner {\r\n        // addCityBet(434,\"2471883\", \"Rotterdam\", 0, 0, 0, DateLib.DateTime(2018, 8, 13, 0, 0, 0, 0, 0).toUnixTimestamp());\r\n        // addCityBet(\"2329929\", \"Amsterdam\", 0, 0, 0, DateLib.DateTime(2018, 8, 15, 0, 0, 0, 0, 0).toUnixTimestamp());\r\n        // addCityBet(\"4564645\", \"Utrecht\", 0, 0, 0, DateLib.DateTime(2018, 9, 3, 0, 0, 0, 0, 0).toUnixTimestamp());\r\n        // addCityBet(\"3452554\", \"Groningen\", 0, 0, 0,  DateLib.DateTime(2018, 9, 3, 0, 0, 0, 0, 0).toUnixTimestamp());\r\n        // addCityBet(\"2342555\", \"Maastricht\",0, 0, 0,  DateLib.DateTime(2018, 9, 21, 0, 0, 0, 0, 0).toUnixTimestamp());\r\n        // addCityBet(\"4564654\", \"Haarlem\", 0, 0, 0, DateLib.DateTime(2018, 9, 29, 0, 0, 0, 0, 0).toUnixTimestamp());\r\n        // addCityBet(\"3655463\", \"Overschie\",0, 0, 0,  DateLib.DateTime(2018, 10, 10, 0, 0, 0, 0, 0).toUnixTimestamp());\r\n        // addCityBet(\"3454344\", \"Schiedam\", 0, 0, 0, DateLib.DateTime(2018, 11, 11, 0, 0, 0, 0, 0).toUnixTimestamp());\r\n        // addCityBet(\"3248228\", \"Spangen\", 0, 0, 0, DateLib.DateTime(2018, 11, 12, 0, 0, 0, 0, 0).toUnixTimestamp());\r\n    }\r\n}\r\n",
  "sourcePath": "C:/Users/Nofit/Documents/GitHub/react-truffle/oracle/contracts/WeatherOracle.sol",
  "compiler": {
    "name": "solc",
    "version": "0.5.8+commit.23d335f2.Emscripten.clang"
  },
  "schemaVersion": "3.0.10",
  "updatedAt": "2019-06-10T15:20:14.546Z",
  "devdoc": {
    "methods": {
      "addCityBet(address,string,string,uint256,uint256,uint256,uint256)": {
        "return": "the unique id of the newly created CityBet"
      },
      "cityBetExists(bytes32)": {
        "return": "true if CityBet exists and id is valid"
      },
      "declareOutcome(bytes32)": {
        "params": {
          "_betId": "unique id of the CityBet to modify"
        }
      },
      "getAddress()": {
        "return": "address"
      },
      "getAllCityBets()": {
        "return": "an array of unique CityBet ids"
      },
      "getCityBet(bytes32)": {
        "return": "CityBet data of the specified weather"
      },
      "getMostRecentCityBet(bool)": {
        "return": "CityBet data"
      },
      "getPendingCityBets()": {
        "return": "an array of unique CityBet ids"
      },
      "transferOwnership(address)": {
        "details": "Allows the current owner to transfer control of the contract to a newOwner.\r",
        "params": {
          "newOwner": "The address to transfer ownership to.\r"
        }
      }
    }
  },
  "userdoc": {
    "methods": {
      "addTestData()": {
        "notice": "for testing  string memory _cityId, string memory _cityName, uint _weather_date"
      }
    }
  }
}