{
  "contractName": "SimpleStorage",
  "abi": [
    {
      "anonymous": false,
      "inputs": [
        {
          "indexed": false,
          "name": "url",
          "type": "string"
        }
      ],
      "name": "HTTPRequest",
      "type": "event",
      "signature": "0x9e936044bcfeaf5add073a1edb7c513bd9a94b70e3686d735ca7b26a17fb3dea"
    },
    {
      "constant": false,
      "inputs": [
        {
          "name": "x",
          "type": "uint256"
        }
      ],
      "name": "set",
      "outputs": [],
      "payable": false,
      "stateMutability": "nonpayable",
      "type": "function",
      "signature": "0x60fe47b1"
    },
    {
      "constant": true,
      "inputs": [],
      "name": "get",
      "outputs": [
        {
          "name": "",
          "type": "uint256"
        }
      ],
      "payable": false,
      "stateMutability": "view",
      "type": "function",
      "signature": "0x6d4ce63c"
    }
  ],
  "bytecode": "0x608060405234801561001057600080fd5b506101d0806100206000396000f3fe60806040526004361061004c576000357c0100000000000000000000000000000000000000000000000000000000900463ffffffff16806360fe47b1146100515780636d4ce63c1461008c575b600080fd5b34801561005d57600080fd5b5061008a6004803603602081101561007457600080fd5b81019080803590602001909291905050506100b7565b005b34801561009857600080fd5b506100a161019b565b6040518082815260200191505060405180910390f35b806000819055507f9e936044bcfeaf5add073a1edb7c513bd9a94b70e3686d735ca7b26a17fb3dea6040518080602001828103825260718152602001807f687474703a2f2f6170692e6f70656e776561746865726d61702e6f72672f646181526020017f74612f322e352f776561746865723f713d446f726472656368742c6e6c26756e81526020017f6974733d6d65747269632641505049443d35356533643036636665323562353481526020017f656333343965616538383062393864353700000000000000000000000000000081525060800191505060405180910390a150565b6000805490509056fea165627a7a7230582084908c33f00ccf800c8f525026d22c45697e885f8d868c34fcaaa39f70adb76e0029",
  "source": "pragma solidity ^0.5.0;\n\ncontract SimpleStorage {\n  uint storedData;\n\n  function set(uint x) public {\n    storedData = x;\n    emit HTTPRequest(\"http://api.openweathermap.org/data/2.5/weather?q=Dordrecht,nl&units=metric&APPID=55e3d06cfe25b54ec349eae880b98d57\");\n  }\n\n  function get() public view returns (uint) {\n    return storedData;\n  }\n\n  event HTTPRequest(\n        string url\n    );\n}\n",
  "sourcePath": "/Users/freddydacruz/Documents/react-truffle/contracts/SimpleStorage.sol",
  "compiler": {
    "name": "solc",
    "version": "0.5.0+commit.1d4f565a.Emscripten.clang"
  },
  "schemaVersion": "3.0.5",
  "updatedAt": "2019-05-20T22:01:22.923Z",
  "devdoc": {
    "methods": {}
  },
  "userdoc": {
    "methods": {}
  }
}